:020000040800F2
:10000000C8870024A10300089D9E00088393000870
:100010009D9B0008CB07000835E1000800000000A8
:10002000000000000000000000000000E1020008E5
:100030004D1B0008000000003D03000829A7000830
:10004000BF030008BF030008BF030008BF03000888
:10005000BF030008BF030008BF030008BF03000878
:10006000BF030008BF030008BF030008BF03000868
:10007000BF030008D1100008E1100008BF0300080A
:10008000BF030008BF030008BF030008791B000876
:10009000891B0008BF030008BF030008BF03000856
:1000A000BF030008BF030008BF030008BF03000828
:1000B000BF030008BF03000809A90008BF03000828
:1000C000BF030008BF030008BF030008BF03000808
:1000D000BF030008BF030008BF030008BF030008F8
:1000E000BF030008BF03000800000000BF030008B2
:1000F0002DA90008BF030008BF030008BF030008C4
:10010000BF030008BF030008BF030008BF030008C7
:10011000BF0300082DAE0008BF030008BF0300089E
:10012000BF030008BF030008BF030008BF030008A7
:10013000BF030008BF030008BF030008BF03000897
:1001400000000000000000000000000000000000AF
:10015000BF030008BF030008BF030008BF03000877
:10016000BF030008BF030008BF030008BF03000867
:10017000BF030008C59E0008BF0300080000000080
:10018000BF030008BF0300083DAE0008BF0300081E
:10019000BF030008BF030008BF030008BF03000837
:1001A000BF030008BF030008BF03000800000000F1
:1001B000BF030008BF030008BF030008BF03000817
:1001C000BF030008BF03000800000000000000009B
:1001D0000000000000000000BF0300080000000055
:1001E000000000000000000000000000000000000F
:1001F0000000000000000000BF030008BF0300086B
:10020000BF030008BF03000800000000BF03000890
:10021000BF030008BF030008BF030008BF030008B6
:10022000BF03000800000000BF030008000000003A
:10023000BF030008BF03000800000000BF03000860
:10024000BF030008BF030008BF030008BF03000886
:10025000BF030008BF030008BF030008BF03000876
:10026000BF030008BF030008BF030008BF03000866
:10027000BF030008BF030008BF0300080000000020
:10028000BF030008BF030008BF030008BF03000846
:1002900000000000BF030008BF03000800000000CA
:1002A00000000000BF030008BF030008BF030008F0
:1002B000BF030008BF030008BF030008991B000824
:1002C000BF030008BF030008BF030008DFF80CD01D
:1002D00000F034F90048004779EA0008C887002494
:1002E0002C4B19680868B0E8F04F80F30988BFF319
:1002F0006F8F4FF0000080F31188704700000000FE
:1003000008480068006880F308884FF0000080F318
:10031000148862B661B6BFF34F8FBFF36F8F00DFF3
:1003200000BF00BF08ED00E0DFF80C00016841F4F9
:1003300070010160704700BF88ED00E0EFF30980B5
:10034000BFF36F8F134B1A681EF0100F08BF20ED1C
:10035000108A20E9F04F106009B44FF0500080F38C
:100360001188BFF34F8FBFF36F8F10F095FD4FF0E3
:10037000000080F3118809BC19680868B0E8F04FE4
:100380001EF0100F08BFB0EC108A80F30988BFF38D
:100390006F8F704724000024EFF305807047000042
:1003A000074880470748804707480047FEE7FEE7C1
:1003B000FEE7FEE7FEE7FEE7FEE7FEE7FEE7FEE715
:1003C000551B0008FDA70008CD0200082DE9F05FCD
:1003D0000546002092469B468846064681464024B4
:1003E0001BE0284641464746224600F053F8534654
:1003F0005A46C01A914110D311461846224600F0C1
:100400003AF82D1A67EB01084F46224601200021D9
:1004100000F031F817EB00094E41201EA4F1010451
:10042000DFDC484631462A464346BDE8F09F40EAB5
:1004300001039B0703D009E008C9121F08C0042A62
:10044000FAD203E011F8013B00F8013B521EF9D249
:100450007047D2B201E000F8012B491EFBD2704771
:100460000022F6E710B513460A4604461946FFF780
:10047000F0FF204610BD202A04DB203A00FA02F1EA
:10048000002070479140C2F1200320FA03F3194382
:1004900090407047202A04DB203A21FA02F0002124
:1004A000704721FA02F3D040C2F120029140084384
:1004B000194670472DE9FE4FC3F30A5701F0004576
:1004C0000024C1F30A56C3F31303C1F3130143F429
:1004D000801312EB020AA64641F48011009543EB0B
:1004E000030CA7F1010B16E0B0EB0A0061EB0C0165
:1004F000071E71F1000707DA4FF00008D0EB080083
:1005000085F0004568EB0101171A73EB0107EBD387
:10051000761E001849415E45F6DA50EA010209D01C
:10052000CDE900E500221346029600F028F803B05A
:10053000BDE8F08F20460099F9E70000064C074D12
:1005400006E0E06840F0010394E8070098471034A3
:10055000AC42F6D3FFF7BEFE7C1E01089C1E0108CC
:1005600010B5141E73F1000408DA401C41F10001BB
:1005700092185B411A4301D120F0010010BD2DE912
:10058000F04D92469B4611B1B1FA81F202E0B0FA09
:1005900080F220329046FFF76EFF04460F4640EA95
:1005A0000A0041EA0B0153465A46084313D011464C
:1005B00053EA010019D0C8F140025046FFF76AFF24
:1005C00005460E46504659464246FFF754FF08433B
:1005D00005D0012004E020463946BDE8F08D00201A
:1005E000054346EAE0762C4337430A986305E40A5C
:1005F000A0EB08000022FD0A44EA47540A3002D565
:1006000000200146E9E7010510196941DDE90845C7
:1006100000196941BDE8F04DA2E770B58C1810F8DB
:10062000015B15F0070301D110F8013B2A1106D137
:1006300010F8012B03E010F8016B01F8016B5B1E51
:10064000F9D12B0705D40023521E0DD401F8013B2C
:10065000FAE710F8013BCB1A921C03E013F8015B98
:1006600001F8015B521EF9D5A142D8D3002070BD1C
:1006700000B599B000201190129002201390012033
:10068000149000201590169011A93A4803F09FFA93
:1006900008B101F05CFA00200346022211460090E6
:1006A000344803F0E8FA08B101F051FA00220121C0
:1006B000304803F0EFF908B101F049FA2D4804F091
:1006C0001EF908B101F043FA002009900A900220B7
:1006D0000B9001200C9000200D900E9009A9264847
:1006E00003F075FA08B101F032FA00200346022245
:1006F00011460090204803F0BEFA08B101F027FA35
:10070000002201211C4803F0C5F908B101F01FFACD
:10071000194804F0F4F808B101F019FA002001902A
:100720000290022003900120049000200590069082
:1007300001A9124803F04BFA08B101F008FA0020B1
:1007400003460222114600900C4803F094FA08B1C7
:1007500001F0FDF900220121084803F09BF908B1DE
:1007600001F0F5F9054804F0CAF808B101F0EFF915
:1007700019B000BD48030024E803002488040024C5
:1007800008B5242000900548006800F12401044BBE
:10079000A3F1320201480BF039F808BDC00500246E
:1007A00082670024002141600121417070470146A9
:1007B0004878704701214170002141607047022153
:1007C0004170704701214170704700BFFEE703464A
:1007D000042B15D007DC7BB1012B0ED0022B0DD0E2
:1007E000032B12D10BE0202B0BD0212B0AD0222B74
:1007F00009D0232B09D107E008E007E006E005E077
:1008000004E003E002E001E000E000BF00BF0020E0
:10081000704700207047000010B5002204490548C9
:100820000BF0B3FA044903480BF0A0FA002010BD06
:1008300090740024B4670024906C002470B50446C2
:100840000D466CB165B1286850B1002600BF03E0C9
:10085000A05D10F04FF8761C2868B042F8D800BFB1
:10086000214604480BF082FA02480BF04BFA0020B4
:1008700070BD0000B467002410B503460C4600218B
:10088000084610BD2DE9F04104460D4600260A48F1
:10089000D0F8BC72D7F8140210B10120BDE8F08185
:1008A0002A46214604480BF070FA03480BF020FB5F
:1008B00006463046F2E70000B46700241CB5002469
:1008C00000BF00BF00BF00BF0EF090FF0446974876
:1008D00090F82000D0B104F00100B0B19448416F0D
:1008E000884700200090034602464FF400710190B3
:1008F000904800F0B1FB00200090034602464FF400
:10090000007101908C4800F0A7FB02E18B48007851
:1009100000287CD001283BD0022838D188480078B4
:1009200000F0010008B10EF0EDF88548007800F005
:10093000020008B10EF0D2FE8148007800F00400F9
:1009400010B10EF0C7FC1BE07E489FED7F2ADFED63
:100950007E1A9FED7D1ADFED7C0A9FED7B0AD0F8B1
:100960000011884779489FED782ADFED771A9FEDCF
:10097000761ADFED750A9FED740AD0F800118847EA
:100980006F48007800F0080008B10EF0C9F9BFE028
:100990006748416F884700200090034602464FF4A5
:1009A00000710190634800F057FB0020009003465F
:1009B00002464FF4007101905F4800F04DFB0020AB
:1009C0000090034602464FF400710190604800F029
:1009D00043FB5C489FED5C2ADFED5B1A9FED5A1AE2
:1009E000DFED590A9FED580AD0F8001188475748A3
:1009F0009FED552ADFED541A9FED531ADFED520A91
:100A00009FED510AD0F800118847524800E04DE0B0
:100A10009FED4D2ADFED4C1A9FED4B1ADFED4A0A90
:100A20009FED490AD0F8001188474B489FED462AB0
:100A3000DFED451A9FED441ADFED430A9FED420AB0
:100A4000D0F80011884745489FED3F2ADFED3E1A58
:100A50009FED3D1ADFED3C0A9FED3B0AD0F80011F7
:100A6000884701203E49087000203E4908703E49F1
:100A700008703E4908703E4908703E4908703E497A
:100A800008703E49087040F634003D4909684863E3
:100A9000012291023B4804F04FF8002108460FF074
:100AA0007DFC002108460FF0E3FC31E03648007879
:100AB00005282BD2DFE800F02903060919000EF003
:100AC00021F823E00EF00AFE20E01948416F884724
:100AD00000200090034602464FF400710190154833
:100AE00000F0BAFA0EF0F6FB10E01148416F8847AB
:100AF00000200090034602464FF4007101900D481B
:100B000000F0AAFA0EF00CF900E000BF00BF00BF31
:100B100000BF084803F0C6F9074803F0C3F90C48C2
:100B200003F0C0F903200EF052FECDE61A020024B5
:100B3000F850002448030024E803002405020024A0
:100B40000802002408620024000000001063002452
:100B500088040024A05E0024A85F0024B060002464
:100B6000FC010024FD010024FE010024FF010024FB
:100B700000020024010200240202002403020024D7
:100B800028050024000802580602002410B52DEDA7
:100B9000028B04466348007800287DD162480078C3
:100BA000012879D161498888DFED610A9FED610AEA
:100BB0004FF4E062C0210DF05FFC00EE100AB8EEC9
:100BC000C00A84ED170A59498888DFED590A9FED5C
:100BD000590A4FF4E062C0210DF04EFC00EE100AFD
:100BE000B8EEC00AB0EE408A50498888DFED500A5E
:100BF0009FED500A4FF4E062C0210DF03DFC4042F1
:100C000000EE100AB8EEC00AF0EE408A47490888A4
:100C1000F0EE480A4FF4E062C0210DF02DFC00EE2A
:100C2000100AB8EEC00A84ED160A40498888DFED44
:100C3000400A9FED400A4FF4E062C0210DF01CFC19
:100C400000EE100AB8EEC00AB0EE408A3749888834
:100C5000DFED370A9FED370A4FF4E062C0210DF057
:100C60000BFC404200EE100AB8EEC00AF0EE408ADB
:100C70002E494888F0EE480A4FF4E062C0210DF09A
:100C8000FBFB00EE100AB8EEC00A84ED150A2749F6
:100C9000C888F1EE040A00E010E0B9EE040A4FF44F
:100CA000E062C0210DF0E8FB00EE100AB8EEC00AC9
:100CB000DFED210A20EE200A84ED140A94ED140AD7
:100CC000D4ED150A30EE200AD4ED160A30EE200AD3
:100CD00084ED180A94ED140AD4ED150A30EE600A7A
:100CE000D4ED160A30EE200A84ED190A94ED140AA8
:100CF000D4ED150A30EE200AD4ED160A30EE600A63
:100D000084ED1A0A94ED140AD4ED150A30EE600A47
:100D1000D4ED160A30EE600A84ED1B0ABDEC028B9E
:100D200010BD000005020024060200241A0200245F
:100D30000000C84200000000272021411FB500210B
:100D4000374809F0B5FC36488168884735480121A5
:100D50000022CDE90012344B40F20122CDE902100D
:100D60004902324800F026F9314801210022CDE93C
:100D700000122D4B40F20222CDE9021049022D480B
:100D800000F018F92C4801210022CDE90012264B71
:100D900040F20322CDE902104902284800F00AF986
:100DA000274801210022CDE900121F4B4FF40172A8
:100DB000CDE902104902234800F0FCF82248012145
:100DC00000220092214BCDE90121039040F2012243
:100DD00049021F4800F0EEF81E480121002200924F
:100DE0001A4BCDE90121039040F2022249021A4830
:100DF00000F0E0F80A480D49426C904708480D4958
:100E0000426C904706480D49426C904704480D4992
:100E1000426C9047114802490867114848671FBD56
:100E2000F8500024C8000024480300247051002416
:100E3000E00000240C530024F8000024A8540024EF
:100E4000100100244456002428010024E803002453
:100E5000E0570024400100247C5900248D0B000839
:100E6000650E00089FED1D0A80ED140A9FED1B0A18
:100E700080ED150A9FED190A80ED160A9FED170AFD
:100E800080ED180A9FED150A80ED190A9FED130AEF
:100E900080ED1A0A9FED110A80ED1B0A9FED0F0AE3
:100EA0000F4981ED3B0A9FED0D0A0E4981ED3B0A8A
:100EB0009FED0A0A0C4981ED3B0A9FED080A0B4998
:100EC00081ED3B0A9FED050A094981ED3B0A9FED43
:100ED000030A084981ED3B0A70470000000000004A
:100EE000705100240C530024A854002444560024BC
:100EF000E05700247C5900244A780B7842EA032208
:100F0000A0F86C21B0F86C21A0F870217047027F26
:100F10005AB1012A05D0022A02D0062A46D100BFC2
:100F200000BF8A7980F86A2100BF00F5B27002899B
:100F300042814A780B7842EA03220281CA788B7890
:100F400042EA032212B202804A790B7942EA032272
:100F500012B26FF0040392FBF3F212B242800289E4
:100F60004389A0F5B270D21AB2F5805F05DDD0F8E2
:100F70007421521EC0F874210CE0B0F86C21B0F856
:100F80006E31D21A12F5805F04DAD0F87421521C47
:100F9000C0F87421B0F86C31D0F8742103EB423200
:100FA000B0F87031D21AC0F8782100E000BF00BF5D
:100FB000704700002DE9F84F04468B4615461E4643
:100FC0000AAF97E88007E9B23B4632462046CDF8A3
:100FD000008008F0D5FE04F5B07424F8A05C1B482E
:100FE00060631B48A0631B4820630020A080E08052
:100FF0002081A072A081E08120826061A0612077C1
:101000002085E062A4F5B074002104F5BF70C4F837
:101010007E11C4F88211A4F88611607F58B10128AE
:1010200002D002280FD10DE05246494604F58A70DD
:1010300009F0B2F807E05246494604F1C40009F04D
:10104000ABF800E000BF00BFBDE8F88F0F0F00084D
:10105000F90E0008099E00082DE9F0438BB0814687
:101060000E4614461D46DDE91278029600200390D4
:1010700004900820059000200690079008900990A1
:101080000A90200A8DF80000E0B28DF80100280ACD
:101090008DF80200E8B28DF80300380A8DF80400DC
:1010A000F8B28DF805004FEA18208DF8060008F018
:1010B000FF008DF807006A4602A9484602F03EFD8F
:1010C000024908700BB0BDE8F0830000AC000024BA
:1010D00010B5024801F0C4FC10BD0000E806002471
:1010E00010B5024801F0BCFC10BD000060070024F0
:1010F0000146374A0868904249D0354A1832086894
:10110000904244D0324A3032086890423FD0304A50
:101110004832086890423AD02D4A603208689042BE
:1011200035D02B4A78320868904230D0284A903225
:10113000086890422BD0264AA8320868904226D0F0
:10114000244A0868904222D0224A18320868904205
:101150001DD0204A30320868904218D01D4A4832CB
:101160000868904213D01B4A6032086890420ED043
:10117000184A78320868904209D0164A90320868B6
:10118000904204D0134AA8320868904201D101204D
:1011900000E00020B0B10A78103A1823B2FBF3F057
:1011A00000F007020C4B9A5CCA65032805D90A684F
:1011B0006FF30902121D8A6503E00A686FF30902E2
:1011C0008A6503E0086820F0FF008865886D704735
:1011D0001000024010040240C01D010810B5026852
:1011E0002B4C0368A34222D0294C14340368A34239
:1011F0001DD0274C28340368A34218D0244C3C341B
:101200000368A34213D0224C50340368A3420ED08B
:101210001F4C64340368A34209D01D4C7834036822
:10122000A34204D01A4C8C340368A34201D1012399
:1012300000E000238BB10378083B1424B3FBF4F1E6
:10124000144B03EB81030366124B8033436601F0BA
:101250001F040123A340836618E00378103B182481
:10126000B3FBF4F10C4B9A4204D80B4BA83B9A42C7
:1012700000D30831094B03EB81030366074B80332E
:10128000436601F01F040123A340836610BD0000E4
:101290000854025800580258B8040240000802409E
:1012A0000179A9B3082940D8204B02689A4222D07C
:1012B0001E4B143302689A421DD01C4B283302681F
:1012C0009A4218D0194B3C3302689A4213D0174BFC
:1012D000503302689A420ED0144B643302689A422B
:1012E00009D0124B783302689A4204D00F4B8C33EA
:1012F00002689A4201D1012200E000224AB14A1E4E
:101300000B4B03EB8202C266094A4032026708E0D7
:101310000BE04A1E074B03EB8202C266054A4032CD
:1013200002674A1E012393404367704708540258DE
:101330000059025800090240014600208A69D2B9CA
:101340008A6A32B1012A0DD0022A03D0032A10D1B1
:101350000EE000BFCA6A02F08072B2F1807F00D155
:10136000012007E0CA6AB2F1C07F00D1012001E08C
:1013700000E000BF36E08A69B2F5005F1BD18A6ADF
:1013800032B1012A07D0022A03D0032A11D10AE080
:1013900000BF01200EE0CA6A02F08072B2F1807FC5
:1013A00000D1012006E0CA6AB2F1C07F00D101205D
:1013B00000E000BF16E08A6A32B1012A05D0022A95
:1013C00004D0032A0CD103E000BF00BF012008E0D5
:1013D000CA6A02F08072B2F1807F00D1012000E081
:1013E00000BF00BF7047000030B5384D0468AC4204
:1013F00049D0364D18350468AC4244D0334D3035B1
:101400000468AC423FD0314D48350468AC423AD014
:101410002E4D60350468AC4235D02C4D78350468CB
:10142000AC4230D0294D90350468AC422BD0274DCA
:10143000A8350468AC4226D0254D0468AC4222D0C1
:10144000234D18350468AC421DD0214D3035046859
:10145000AC4218D01E4D48350468AC4213D01C4D28
:1014600060350468AC420ED0194D78350468AC4242
:1014700009D0174D90350468AC4204D0144DA835FE
:101480000468AC4201D1012400E0002474B1046876
:1014900063608468402C04D10468A2600468E16041
:1014A00012E00468A1600468E2600DE00468636013
:1014B0008468402C04D10468A2600468E16003E001
:1014C0000468A1600468E26030BD000010000240C2
:1014D0001004024030B58BB004460D46A07F029048
:1014E00000200390049008200590002006900790AB
:1014F000089009900A90FF208DF800008DF80100F7
:101500008DF802008DF803008DF804008DF80500B9
:101510008DF8060035B1012D0BD0022D10D0032D12
:1015200016D111E0FC208DF80700012084F8C400DA
:101530000FE0FD208DF80700002084F8C40008E0CB
:10154000FE208DF8070004E0FB208DF8070000E086
:1015500000BF00BF6A4602A904F1200002F0EEFAC3
:101560000BB030BD2DE9F0412DED048B04460D4646
:10157000A878697840EA0126E8780001297940EAEC
:1015800021176879297901F00F0140EA0128B2EEAC
:10159000090AB0EE408AB3EE0E0AF0EE408AB2EECF
:1015A000040AB0EE409A207F001F072846D2DFE8E9
:1015B00000F01E11454504382B00B2EE090AB0EECA
:1015C000408AB3EE0E0AF0EE408AB2EE040AB0EEA4
:1015D000409A34E0B2EE090AB0EE408AB3EE0E0A49
:1015E000F0EE408AB2EE040AB0EE409A27E09FED9A
:1015F000620AB0EE408A9FED610AF0EE408AB2EED8
:10160000040AB0EE409A1AE0B2EE090AB0EE408A3F
:10161000B3EE0E0AF0EE408AB2EE040AB0EE409A43
:101620000DE0B2EE090AB0EE408AB3EE0E0AF0EE1B
:10163000408AB2EE040AB0EE409A00E000BF00BF5C
:101640002878001104F8C40F94ED010A84ED020A11
:101650001021F0EE480AB1EE480A30460FF022F9A8
:1016600084ED010A0C21F0EE680AB1EE680A3846F2
:101670000FF018F984ED040A0C21F0EE490AB1EEDE
:10168000490A40460FF00EF984ED050AA87900EEEC
:10169000100AB8EE400ABCEEC00A10EE100A20761E
:1016A000E87900EE100AB8EE400ABCEEC00A10EE6F
:1016B000100A607694ED010AD4ED020AC43C30EEC3
:1016C000600ADFED2F0AB4EEE00AF1EE10FA05DD54
:1016D000D4F8E000001FC4F8E00011E094ED320AF5
:1016E000D4ED330A30EE600ADFED260AB4EEE00AEC
:1016F000F1EE10FA04D2D4F8E000001DC4F8E000C6
:1017000094ED321AB7EEC11AB0EE410B9FED1E1BDD
:101710000CF034FDB7EEC00B84ED340A94ED340ABE
:10172000DFED1B0AB4EEE00AF1EE10FA08DD94EDED
:10173000340ADFED130A30EE600A84ED340A10E05B
:1017400094ED340ADFED130AB4EEE00AF1EE10FA7C
:1017500007D294ED340ADFED0A0A30EE200A84ED58
:10176000340A94F8C40010B9012084F8C400BDEC18
:10177000048BBDE8F0810000560E49410000344260
:10178000D00FC940D00FC9C000000000FA21194095
:10179000D00F4940D00F49C02DE9F84304460D460B
:1017A00016461F46DDE90889E9B243463A46204617
:1017B000CDF8009008F0E4FAC43466700F48606316
:1017C0000F48E0630F4820640F48A0639FED0F0AA5
:1017D00084ED010A9FED0D0A84ED020A9FED0B0ACC
:1017E00084ED030A9FED090A84ED040A9FED070AC0
:1017F00084ED050AC43CBDE8F8830000D514000858
:1018000011180008E51A000865150008000000001E
:101810002DE9F0432DED068B8BB00546B0EE40AAC6
:10182000B0EE608AF0EE418AB0EE619AF0EE429A34
:10183000A87F0290002003900490082005900020CB
:1018400006900790089009900A90287F001F0728AB
:1018500056D2DFE800F0051555042535450000BFD8
:101860009FED990A994880ED000A9FED990A9948E1
:1018700080ED000AB2EE040A974880ED000A40E0CD
:101880009FED910A914880ED000A9FED910A9148E1
:1018900080ED000AB2EE040A8F4880ED000A30E0C5
:1018A000B2EE090A894880ED000AB3EE0E0A8948B3
:1018B00080ED000AB2EE040A874880ED000A20E0BD
:1018C000B2EE090A814880ED000AB3EE0E0A8148A3
:1018D00080ED000AB2EE040A7F4880ED000A10E0B5
:1018E000B2EE090A794880ED000AB3EE0E0A794893
:1018F00080ED000AB2EE040A774880ED000A00E0AD
:1019000000BF00BF687FE8B3012802D0022838D1A9
:101910006FE010206D4991ED001A91ED000AF1EE93
:10192000400AB0EE4A0A0DF005F806460C20694957
:1019300091ED001A91ED000AF1EE400AB0EE480A6E
:101940000CF0F8FF07460C209FED641ADFED630AE8
:10195000B0EE690A0CF0EEFF80460C209FED601A95
:10196000DFED5E0AB0EE680A0CF0E4FF81460C2061
:10197000B1EE041ADFED590AB0EE490A0CF0DAFFB5
:10198000044672E0FFE710209FED541ADFED530A82
:101990009FED520A0CF0CEFF06460C204D4991ED0A
:1019A000001A91ED000AF1EE400AB0EE480A0CF080
:1019B000C1FF07460C209FED491ADFED480A9FED55
:1019C000470A0CF0B7FF80460C209FED441ADFED6C
:1019D000430A9FED420A0CF0ADFF81460C20B1EEA8
:1019E000041ADFED3E0AB0EE490A0CF0A3FF0446EC
:1019F0003BE01020354991ED001A91ED000AF1EE1F
:101A0000400AB0EE4A0A0CF095FF06460C20314918
:101A100091ED001A91ED000AF1EE400AB0EE480A8D
:101A20000CF088FF07460C202B4991ED001A91ED30
:101A3000000AF1EE400AB0EE690A0CF07BFF804626
:101A40000C209FED271ADFED250AB0EE680A0CF096
:101A500071FF81460C20B1EE041ADFED200AB0EED2
:101A6000490A0CF067FF044600BF00BF30128DF832
:101A70000000F0B28DF80100C7F307108DF80200E6
:101A80003807000E40EA29208DF8030009F0FF0016
:101A90008DF80400C4F307108DF805002007000E30
:101AA00040EA28208DF8060008F0FF008DF80700B6
:101AB0006A4602A905F1200002F040F80BB0BDEC27
:101AC000068BBDE8F083000034114941B4000024C6
:101AD00000003442B8000024BC00002400000000D4
:101AE0000000FA4371B52DED020B8BB006460BAC2E
:101AF0000CADB07F02900020039004900820059068
:101B0000002006900790089009900A9020788DF8A0
:101B1000000060788DF80100A0788DF80200E07870
:101B20008DF8030028788DF8040068788DF805009A
:101B3000A8788DF80600E8788DF807006A4602A9B3
:101B400006F1200001F0FAFF0EB070BD704772B6CA
:101B500000BFFEE70748006840F002000549086042
:101B600000BF04480838006800F400500028F8D08E
:101B7000704700000C48025810B5024802F09AF96C
:101B800010BD00004803002410B5024802F092F98D
:101B900010BD0000E803002410B5024802F08AF9E5
:101BA00010BD00008804002410B501464A6B086887
:101BB000D0F884004FF6FC74A04340EA82000C6821
:101BC000C4F884000868D0F8840020F47F04088FEB
:101BD00044EA00400C68C4F88400886B024408683A
:101BE000D0F888004FF6FC74A04340EA82000C68ED
:101BF000C4F888000868D0F8880020F4FE04888FB4
:101C000044EA00400C68C4F88800C86B02EB40024C
:101C10000868D0F8A0004FF6FC74A04340EA8200A8
:101C20000C68C4F8A0000868D0F8A00020F4FE04F6
:101C30004020405A44EA00400C68C4F8A000D1E9B2
:101C4000104004FB00220868D0F8B0004FF6FC7486
:101C5000A04340EA82000C68C4F8B0000868D0F8DD
:101C6000B00020F4FE04B1F8480044EA00400C68DB
:101C7000C4F8B000D1E9124004FB00220868D0F893
:101C8000AC004FF6FC74A04340EA82000C68C4F834
:101C9000AC00D1E9144004FB00220868D0F8F00041
:101CA0004FF6FC74A04340EA82000C68C4F8F000D0
:101CB0000868D0F8F00020F47C14B1F8580044EA29
:101CC00000400C68C4F8F000886D02EB4002086820
:101CD000D0F8C0004FF6FC74A04340EA82000C68C4
:101CE000C4F8C0000868D0F8C00020F47C14B1F833
:101CF0005C0044EA00400C68C4F8C0000868D0F8F2
:101D0000C00020F07C5491F8600044EA00600C6848
:101D1000C4F8C0002A4C486B04EB8000C866CC6E47
:101D2000886B04EB80040C670C6FC86B04EBC00479
:101D30004C67D1E9100460434C6F04EB80048C675E
:101D4000D1E9120460438C6F04EB8004CC67D1E9C5
:101D500014046043CC6F04EB80048020445044584A
:101D6000886D04EBC004842044508C6EC86D6043C1
:101D70008424645804EB8004882044508C6E086EE0
:101D800060438824645804EB8004902044504058F9
:101D90000C4CA04209D99831486840F020004860B6
:101DA000032001F89809012010BDCB6E02E000204D
:101DB00018601B1D902040589842F8D80020F3E787
:101DC00000AC0040FCD300402DE9F041054614462C
:101DD0001E46D1F804C0BCF1000F0AD1D1F810C0E2
:101DE000D1F808804CEA080CB1F800804CEA88432E
:101DF0000BE0D1F810C04CF0804CD1F808804CEAD0
:101E0000080CD1F800804CEA080391F82080D1F842
:101E10001CC04CEA086CD1F818804CEA080CD1F8C8
:101E200014804CEA080CB1F80C804CEA0847D5F84D
:101E300068C00CFB06FCD5F8848008EB8C021360AC
:101E4000121D1760121D002019E000F1030C14F898
:101E50000CC04FEA0C6800F1020C14F80CC048EA00
:101E60000C4800F1010C14F80CC048EA0C2C14F8D2
:101E700000804CEA080CC2F800C0121D001DDFF8FB
:101E80001480D1F80CC018F80CC08445DDD8BDE82A
:101E9000F0810000C81D010870B50A480468001DE3
:101EA0000568001D0668344454B1082206492046DE
:101EB00007F069FA042204491031284607F063FA52
:101EC00070BD000000E8F11F820200242DE9F047F8
:101ED00004460F4690461E46DDF820904FF0000A5B
:101EE000A068802804D1400060654FF0010A75E1C8
:101EF00000BF94F83400012802D10220BDE8F08729
:101F0000012084F8340000BF94F8350001287DD109
:101F1000022084F8350000206065B14920688842BD
:101F200049D0AF4918312068884244D0AC4930319B
:101F3000206888423FD0AA494831206888423AD078
:101F4000A74960312068884235D0A549783120689A
:101F5000884230D0A2499031206888422BD0A049D5
:101F6000A8312068884226D09E492068884222D025
:101F70009C491831206888421DD09A493031206828
:101F8000884218D0974948312068884213D0954933
:101F90006031206888420ED09249783120688842AA
:101FA00009D0904990312068884204D08D49A831E9
:101FB0002068884201D1012000E0002090B1206813
:101FC000006840F480202168086020680661A06DE8
:101FD00000F1080594F85C0000F01F013F208840E4
:101FE000286011E02068006848F220010843216859
:101FF000086020680661A06D051D94F85C0000F083
:102000001F01012088402860754900E0E1E0206858
:10201000884270D072491831206888426BD070496C
:1020200030312068884266D06D4948312068884246
:1020300061D06B496031206888425CD06849783152
:102040002068884257D0664990312068884252D033
:102050006349A831206888424DD06249206888428F
:1020600049D0604918312068884244D05D493031F8
:10207000206888423FD05B494831206888423AD086
:10208000584960312068884235D0564978312068F7
:10209000884230D053499031206888422BD0514932
:1020A000A8312068884226D04F492068884222D033
:1020B0004D491431206888421DD04B492831206891
:1020C000884218D048493C312068884213D046499C
:1020D0005031206888420ED04349643120688842DC
:1020E00009D0414978312068884204D03E498C317A
:1020F0002068884201D1012000E0002068B14B46F1
:10210000424639462046FFF76FF9D4E91910486076
:10211000E06E10B1D4E91C10486031492068884253
:1021200049D02F4918312068884244D02C49303199
:10213000206888423FD02A494831206888423AD0F6
:10214000274960312068884235D025497831206898
:10215000884230D022499031206888422BD02049D3
:10216000A8312068884226D01E492068884222D0A3
:102170001C491831206888421DD01A493031206826
:10218000884218D0174948312068884213D0154931
:102190006031206888420ED0124978312068884228
:1021A00009D0104990312068884204D00D49A831E7
:1021B0002068884206D12068006840F0010021684C
:1021C00008600BE02068006840F0010021680860AA
:1021D00004E04FF4006060654FF0010A50468DE660
:1021E0001000024010040240085402582DE9F0414A
:1021F000044602F0A7FC804614B90120BDE8F08136
:1022000094F83500022808D08020606500BF0020C7
:1022100084F8340000BF0120F0E7FE4920688842BE
:1022200049D0FC4918312068884244D0F9493031FE
:10223000206888423FD0F7494831206888423AD028
:10224000F44960312068884235D0F24978312068FD
:10225000884230D0EF499031206888422BD0ED4938
:10226000A8312068884226D0EB492068884222D0D5
:10227000E9491831206888421DD0E749303120688B
:10228000884218D0E44948312068884213D0E24996
:102290006031206888420ED0DF497831206888425A
:1022A00009D0DD4990312068884204D0DA49A8314C
:1022B0002068884201D1012000E0002068B1206838
:1022C000006820F01E00216808602068406920F046
:1022D000800021684861256806E02068006820F0D9
:1022E0000E00216808602568CA492068884270D0BD
:1022F000C8491831206888426BD0C64930312068FF
:10230000884266D0C34948312068884261D0C149BB
:102310006031206888425CD0BE49783120688842AC
:1023200057D0BC4990312068884252D0B949A83171
:10233000206888424DD0B8492068884249D0B649C3
:1023400018312068884244D0B3493031206888422F
:102350003FD0B1494831206888423AD0AE49603117
:102360002068884235D0AC4978312068884230D026
:10237000A9499031206888422BD0A749A83120680C
:10238000884226D0A5492068884222D0A34914312A
:10239000206888421DD0A14928312068884218D081
:1023A0009E493C312068884213D09C4950312068B6
:1023B00088420ED0994964312068884209D09749F3
:1023C00078312068884204D094498C312068884252
:1023D00001D1012000E0002028B1206E006820F427
:1023E0008070216E08608B492068884249D08949F5
:1023F00018312068884244D08649303120688842AC
:102400003FD084494831206888423AD081496031C0
:102410002068884235D07F4978312068884230D0A2
:102420007C499031206888422BD07A49A8312068B5
:10243000884226D078492068884222D076491831CF
:10244000206888421DD0744930312068884218D0F5
:10245000714948312068884213D06F496031206843
:1024600088420ED06C4978312068884209D06A4988
:1024700090312068884204D06749A831206888429A
:1024800006D12068006820F001002168086005E09E
:102490002068006820F001002168086011E002F067
:1024A00051FBA0EB080005280BD920206065032014
:1024B00084F8350000BF002084F8340000BF0120FC
:1024C0009CE6286800F001000028E8D15149206806
:1024D000884249D04F4918312068884244D04D493C
:1024E0003031206888423FD04A49483120688842CC
:1024F0003AD0484960312068884235D04549783122
:102500002068884230D043499031206888422BD0DF
:102510004049A8312068884226D03F492068884237
:1025200022D03D491831206888421DD03A493031C7
:102530002068884218D0384948312068884213D032
:1025400035496031206888420ED03349783120689F
:10255000884209D0304990312068884204D02E4901
:10256000A8312068884201D1012000E0002040B15C
:10257000A66D94F85C0000F01F013F208840B06019
:1025800007E0A76D94F85C0000F01F01012088406F
:10259000786020492068884276D01E49183120682A
:1025A000884271D01B493031206888426CD019496B
:1025B00048312068884267D01649603120688842D7
:1025C00062D014497831206888425DD01149903139
:1025D0002068884258D00F49A8312068884253D0DB
:1025E0000D49206888424FD00B4918312068884235
:1025F0004AD0094930312068884245D006494831DF
:102600002068884240D004496031206888423BD02D
:10261000014905E01000024010040240085402582D
:102620007831206888422FD02549206888422BD0F5
:10263000234918312068884226D0224920688842E0
:1026400022D020491431206888421DD01D492831EC
:102650002068884218D01B493C312068884213D03A
:1026600018495031206888420ED0164964312068DC
:10267000884209D0134978312068884204D0114932
:102680008C312068884201D1012000E0002068B12F
:10269000D4E919104860E06E40B1E06E006820F4A3
:1026A0008070E16E0860D4E91C104860012084F855
:1026B000350000BF002084F8340000BF00BF9DE556
:1026C000A00402400854025870B504460CB9012019
:1026D00070BD94F83500022803D080206065012089
:1026E000F6E7DC492068884249D0DA491831206889
:1026F000884244D0D7493031206888423FD0D549FC
:102700004831206888423AD0D249603120688842F6
:1027100035D0D04978312068884230D0CD499031C9
:10272000206888422BD0CB49A8312068884226D027
:10273000C9492068884222D0C74918312068884298
:102740001DD0C54930312068884218D0C24948316F
:102750002068884213D0C0496031206888420ED07A
:10276000BD4978312068884209D0BB499031206842
:10277000884204D0B849A8312068884201D101209C
:1027800000E00020F0B3042084F83500B14920684F
:1027900088424BD0AF4918312068884246D0AD49B5
:1027A00030312068884241D0AA49483120688842A7
:1027B0003CD0A84960312068884237D0A54978319B
:1027C0002068884232D0A3499031206888422DD0B9
:1027D000A049A8312068884228D09F4920688842B3
:1027E00024D09D491831206888421FD09A49303141
:1027F000206888421AD0984948312068884215D00C
:10280000954900E020E06031206888420ED092496E
:1028100078312068884209D08F49903120688842F9
:1028200004D08D49A8312068884206D1206800680C
:1028300020F001002168086009E12068006820F0AC
:1028400001002168086002E12068006820F00E00A5
:10285000216808607F492068884249D07D49183145
:102860002068884244D07B493031206888423FD07C
:1028700078494831206888423AD0764960312068EA
:10288000884235D0734978312068884230D0714908
:102890009031206888422BD06E49A8312068884248
:1028A00026D06D492068884222D06B4918312068B3
:1028B00088421DD0684930312068884218D0664966
:1028C00048312068884213D06349603120688842CB
:1028D0000ED0614978312068884209D05E49903134
:1028E0002068884204D05C49A8312068884206D11B
:1028F0002068006820F001002168086005E0206879
:10290000006820F001002168086052492068884270
:1029100070D050491831206888426BD04D49303111
:102920002068884266D04B4948312068884261D08F
:1029300048496031206888425CD046497831206837
:10294000884257D0434990312068884252D041494B
:10295000A831206888424DD03F492068884249D03C
:102960003D4918312068884244D03B4930312068C5
:1029700088423FD038494831206888423AD03649A9
:1029800060312068884235D03349783120688842E8
:1029900030D031499031206888422BD02E49A8315F
:1029A0002068884226D02D492068884222D02B49B1
:1029B0001431206888421DD0284928312068884277
:1029C00018D026493C312068884213D02349503121
:1029D000206888420ED0214964312068884209D09D
:1029E0001E4978312068884204D01C498C31206807
:1029F000884201D1012000E00020D8B1206E00689B
:102A000020F48070216E0860A56D94F85C0000F0E1
:102A10001F01012088406860D4E919104860E06E09
:102A200040B1E06E006820F48070E16E0860D4E987
:102A30001C104860012084F8350000BF002084F895
:102A4000340000BF206D10B12046216D8847002062
:102A50003EE60000100002401004024008540258F4
:102A60002DE9F84F044600200090FE4800684FF41E
:102A70001651B0FBF1FAA66DD4F858803768D8F833
:102A80000090F9492068884249D0F74918312068F8
:102A9000884244D0F4493031206888423FD0F2491E
:102AA0004831206888423AD0EF4960312068884236
:102AB00035D0ED4978312068884230D0EA499031EC
:102AC000206888422BD0E849A8312068884226D067
:102AD000E6492068884222D0E449183120688842BB
:102AE0001DD0E24930312068884218D0DF49483192
:102AF0002068884213D0DD496031206888420ED0BA
:102B0000DA4978312068884209D0D8499031206864
:102B1000884204D0D549A8312068884201D10120DB
:102B200000E0002000287DD094F85C0000F01F0138
:102B3000082088403840002868D0CB492068884267
:102B400049D0C94918312068884244D0C64930313B
:102B5000206888423FD0C4494831206888423AD032
:102B6000C14960312068884235D0BF49783120683A
:102B7000884230D0BC499031206888422BD0BA4975
:102B8000A8312068884226D0B8492068884222D0DF
:102B9000B6491831206888421DD0B44930312068C8
:102BA000884218D0B14948312068884213D0AF49D3
:102BB0006031206888420ED0AC4978312068884264
:102BC00009D0AA4990312068884204D0A749A83189
:102BD0002068884204D12068006800F0040003E007
:102BE0002068006800F0080080B12068006820F0CC
:102BF00004002168086094F85C0000F01F010820C0
:102C00008840B060606D40F00100606594F85C0041
:102C100000F01F01012088403840E8B39249206845
:102C2000884200E0B7E24BD08F49183120688842D3
:102C300046D08D4930312068884241D08A49483198
:102C4000206888423CD0884960312068884237D06B
:102C5000854978312068884232D083499031206894
:102C600088422DD08049A8312068884228D07F49E9
:102C70002068884224D07D491831206888421FD0BE
:102C80007A493031206888421AD078494831206822
:102C9000884215D0754900E026E0603120688842FE
:102CA0000ED0724978312068884209D06F4990313E
:102CB0002068884204D06D49A8312068884204D138
:102CC0002068406900F0800002E020680068002071
:102CD00050B194F85C0000F01F0101208840B06002
:102CE000606D40F00200606594F85C0000F01F0128
:102CF000042088403840E8B35B49206888424BD0C4
:102D0000594918312068884246D0574930312068E7
:102D1000884241D054494831206888423CD05249C9
:102D200060312068884237D04F4978312068884226
:102D300032D04D499031206888422DD04A49A8317F
:102D40002068884228D049492068884224D04749D1
:102D50001831206888421FD04449303120688842A9
:102D60001AD0424948312068884215D03F49603125
:102D7000206800E024E088420ED03C497831206889
:102D8000884209D0394990312068884204D03749B7
:102D9000A8312068884204D12068006800F0020051
:102DA00002E020680068002050B194F85C0000F058
:102DB0001F0104208840B060606D40F00400606531
:102DC00094F85C0000F01F01102088403840E8B300
:102DD00025492068884251D023491831206888420B
:102DE0004CD0214930312068884247D01E494831B3
:102DF0002068884242D01C496031206888423DD01A
:102E0000194978312068884238D0174990312068B4
:102E1000884233D01449A831206888422ED0134903
:102E2000206888422AD0114918312068884225D06C
:102E30000E4930312068884220D00C494831206842
:102E400088421BD009496031206800E04DE088428B
:102E500014D006497831206888420FD00349903158
:102E6000206805E01C00002410000240100402400D
:102E7000884203D0FE492068884204D12068006857
:102E800000F0080003E02068006800F0040060B370
:102E900094F85C0000F01F0110208840B0602068AA
:102EA000006800F4802080B12068006800F40020F1
:102EB00028B9206CC8B12046216C884715E0A06C69
:102EC00098B12046A16C88470FE02068006800F4A4
:102ED000807028B92068006820F008002168086028
:102EE000206C10B12046216C884794F85C0000F0FB
:102EF0001F0120208840384000287DD0DD4920680F
:102F0000884249D0DB4918312068884244D0D949E9
:102F10003031206888423FD0D64948312068884205
:102F20003AD0D44960312068884235D0D1497831CF
:102F30002068884230D0CF499031206888422BD019
:102F4000CC49A8312068884226D0C949A8392068D0
:102F5000884221D0C6499039206888421CD0C44993
:102F600078392068884217D0C14960392068884282
:102F700012D0BF494839206888420DD0BC49303949
:102F80002068884208D0BA4918392068884203D09E
:102F9000B7492068884204D12068006800F010001A
:102FA00003E02068006800F0020028B394F85C0099
:102FB00000F01F0120208840B06094F835000428FC
:102FC0002DD12068006820F0160021680860206874
:102FD000406920F0800021684861206C08B9A06C2D
:102FE00028B12068006820F008002168086094F883
:102FF0005C0000F01F0100E03FE03F208840B0602F
:10300000012084F8350000BF002084F8340000BFA0
:10301000206D10B12046216D8847BDE8F88F2068EB
:10302000006800F4802080B12068006800F400206F
:1030300028B9606C08B32046616C88471DE0E06BDE
:10304000D8B12046E16B884717E02068006800F49B
:10305000807068B92068006820F01000216808605E
:10306000012084F8350000BF002084F8340000BF40
:10307000E06B10B12046E16B8847606D00287AD084
:10308000606D00F00100E8B3042084F83500794950
:10309000206888424BD0774918312068884246D052
:1030A000744930312068884241D0724948312068E3
:1030B00088423CD06F4960312068884237D06D49E2
:1030C00078312068884232D06A499031206888423D
:1030D0002DD06849A8312068884228D06449A83991
:1030E0002068884223D062499039206888421ED0E7
:1030F0005F4978392068884219D05D496039206875
:10310000884200E040E012D059494839206888429E
:103110000DD0574930392068884208D054491839B1
:103120002068884203D052492068884206D120682E
:10313000006820F001002168086005E02068006850
:1031400020F001002168086000BF0098401C00903A
:10315000504500D905E02068006800F00100002813
:10316000F3D100BF2068006800F0010020B1032007
:1031700084F8350003E00DE0012084F8350000BF3D
:10318000002084F8340000BFE06C002802D0204604
:10319000E16C8847D9E138492068884222D0364915
:1031A0001431206888421DD0334928312068884274
:1031B00018D031493C312068884213D02E49503113
:1031C000206888420ED02C4964312068884209D09A
:1031D000294978312068884204D027498C312068F9
:1031E000884201D1012000E000200028D2D02068D0
:1031F000056894F85C0000F01F010420884000EA94
:103200000900D8B305F00400C0B394F85C0000F0E6
:103210001F0104208840C8F8040005F4004080B174
:1032200005F4803030B9A06C0028B3D02046A16CE2
:1032300088478AE1206C0028ACD02046216C884762
:1032400083E105F02000E8BB0A492068884253D09A
:1032500008491831206888424ED00649303120682C
:10326000884249D0034948312068884244D006E06A
:10327000B804024010000240085402584FE0B4491C
:1032800060312068884237D0B1497831206888425F
:1032900032D0AF499031206888422DD0AC49A83156
:1032A0002068884228D0AB492068884224D0A949A8
:1032B0001831206888421FD0A649303120688842E2
:1032C0001AD000E025E0A34948312068884213D095
:1032D000A0496031206888420ED09E49783120682C
:1032E000884209D09B4990312068884204D099498E
:1032F000A8312068884206D12068006820F00800C4
:103300002168086005E02068006820F0040021685A
:103310000860206C10B32046216C884715E194F8B2
:103320005C0000F01F010220884000EA0900E8B3B9
:1033300005F00200D0B394F85C0000F01F010220F9
:103340008840C8F8040005F4004070B105F48030EE
:1033500028B9606C10B12046616C8847F5E0E06BDD
:10336000F0B32046E16B8847EFE005F02000C0BBDA
:103370007749206888424ED07549183120688842C4
:1033800049D0734930312068884244D0704948316F
:10339000206888423FD06E496031206888423AD028
:1033A0006B4978312068884235D000E04EE06849AA
:1033B0009031206888422ED06549A8312068884223
:1033C00029D064492068884225D062491831206894
:1033D000884220D05F493031206888421BD001E00C
:1033E0006EE02DE05B4948312068884213D059498E
:1033F0006031206888420ED0564978312068884272
:1034000009D0544990312068884204D05149A831EC
:103410002068884206D12068006820F014002168E6
:10342000086005E02068006820F00A002168086054
:10343000012084F8350000BF002084F8340000BF6C
:10344000E06BE8B32046E16B88477EE094F85C00CF
:1034500000F01F010820884000EA090080B305F051
:10346000080068B33A49206888424BD0384918317F
:103470002068884246D0364930312068884241D0A1
:1034800033494831206888423CD031496031206856
:10349000884237D02E4978312068884232D02C4972
:1034A0009031206888422DD02949A831206888426F
:1034B00028D028492068884224D02649183100E0C5
:1034C00043E0206888421DD022493031206888427C
:1034D00018D0204948312068884213D01D496031F6
:1034E000206888420ED01B4978312068884209D074
:1034F000184990312068884204D01649A8312068C4
:10350000884206D12068006820F01C00216808600D
:1035100005E02068006820F00E002168086094F83B
:103520005C0000F01F0101208840C8F80400012061
:10353000606584F8350000BF002084F8340000BFC7
:10354000E06C10B12046E16C884700BF65E50000E3
:1035500010000240100402402DE9F041044601F041
:10356000F1FA804614B90120BDE8F081FE492068D7
:10357000884249D0FC4918312068884244D0FA4931
:103580003031206888423FD0F7494831206888426E
:103590003AD0F54960312068884235D0F249783117
:1035A0002068884230D0F0499031206888422BD082
:1035B000ED49A8312068884226D0EC49206888422D
:1035C00022D0EA491831206888421DD0E7493031BD
:1035D0002068884218D0E54948312068884213D0D5
:1035E000E2496031206888420ED0E0497831206895
:1035F000884209D0DD4990312068884204D0DB49F7
:10360000A8312068884201D1012000E00020002874
:1036100073D0606A00B100BF022084F8350000BF9B
:10362000002084F8340000BFCF492068884249D088
:10363000CD4918312068884244D0CB4930312068C8
:1036400088423FD0C8494831206888423AD0C649AC
:1036500060312068884235D0C3497831206888427B
:1036600030D0C1499031206888422BD0BE49A83162
:103670002068884226D0BD492068884222D0BB49B4
:103680001831206888421DD0B849303120688842FE
:1036900018D0B64948312068884213D0B349603108
:1036A000206888420ED0B14978312068884209D01C
:1036B000AE4990312068884204D0AC49A8312068D6
:1036C000884206D12068006820F001002168086067
:1036D00005E02068006820F00100216808600DE026
:1036E00001F030FAA0EB0800052807D9202060651A
:1036F000032084F83500012036E769E0206800687F
:1037000000F001000028EBD12068056898480540CA
:10371000D4E9020108432169084361690843A169AA
:103720000843E1690843216A08430543606A0428A5
:1037300003D1D4E90B01084305436068292802D36B
:1037400060682E2817D960683F2802D36068422835
:1037500011D96068472802D3606848280BD960688F
:103760004F2802D36068522805D96068742804D3B2
:103770006068772801D8012000E0002008B145F4F6
:103780008015206805602068456925F00705606A96
:103790000543606A04280DD1A06A0543E06A48B178
:1037A0002046FDF7C9FD28B140206065012084F85E
:1037B0003500D9E6206845612046FDF799FC0646AC
:1037C00094F85C0000F01F013F208840B0609EE04C
:1037D00068492068884222D06649143120688842AE
:1037E0001DD0644928312068884218D061493C3195
:1037F0002068884213D05F495031206888420ED03B
:103800005C4964312068884209D05A49783120687F
:10381000884204D057498C312068884201D1012068
:1038200000E00020E0B353492068884222D051498B
:103830001431206888421DD04E49283120688842C2
:1038400018D04C493C312068884213D04949503146
:10385000206888420ED0474964312068884209D0E8
:10386000444978312068884204D042498C3120682C
:10387000884201D1012000E0002000B100BF0220F9
:1038800084F8350000BF002084F8340000BF2068B1
:10389000056839480540A068402802D1102106E09B
:1038A0002EE0A068802801D1C10100E00021E0687D
:1038B00041EAD001206941EAD001606941EAD001C2
:1038C000A06941EAD001E06941EAD001206A41EAF9
:1038D000101005432068056026492068401A14210D
:1038E000B0FBF1F08000E0652046FDF701FC0746E3
:1038F00094F85C0000F01F0101208840786006E029
:1039000040206065032084F8350001202CE616492C
:10391000206888427AD0144918312068884275D0CE
:10392000114930312068884270D00F4948312068F1
:1039300088426BD00C4960312068884266D00A49C1
:1039400078312068884261D00749903120688842E8
:103950005CD00549A8312068884257D003492068C7
:10396000884253D0014909E010000240100402408F
:103970003F8010FE085402580F00FEFF18312068E7
:10398000884243D03749206888423FD035491831B2
:10399000206888423AD0334930312068884235D097
:1039A000304948312068884230D02E496031206843
:1039B00088422BD02B4978312068884226D02A496A
:1039C0002068884222D028491431206888421DD0BE
:1039D000254928312068884218D023493C31206885
:1039E000884213D020495031206888420ED01E49A9
:1039F00064312068884209D01B49783120688842A8
:103A000004D019498C312068884201D1012000E09E
:103A1000002000B32046FDF7E1FBA068802801D11B
:103A2000002060602079216E0860D4E91910486098
:103A3000606860B16068082809D82046FDF730FC4E
:103A40000020E16E0860D4E91C10486003E000200B
:103A5000E0662067606700206065012084F835001B
:103A6000002081E5400402400854025870B5044625
:103A700001F068F806462546681C10B10448007835
:103A8000054400BF01F05EF8801BA842FAD370BD68
:103A90001800002430B5034693F89840012C01D05B
:103AA000022C3ED11868806D084030B91868C06D8E
:103AB00040F001001D68E8650EE01868806D084060
:103AC000884206D11868C06D40F002001D68E865A4
:103AD00002E003201D68E86501F4007030B1186849
:103AE000D0F8E00010431D68C5F8E00001F48060E4
:103AF00030B11868D0F8E40010431D68C5F8E40040
:103B000000BF1868406D0B4D0D4028431D68686567
:103B10000948006840EA9170074D286000BF002006
:103B200030BDD3F89C0040F00200C3F89C00012097
:103B3000F6E70000FFFFCF3F14A800402DE9F04159
:103B400004460E461746706800B900E000BF94F8BE
:103B50009800022832D12068D0F8C00000F07C50D4
:103B600040B9D4F89C0040F02000C4F89C0001202B
:103B7000BDE8F0812068D0F8C40000F4001038B12E
:103B8000D4F89C0040F40070C4F89C000120EFE7DA
:103B90002068D0F8C400C0F304452B463A463146AD
:103BA0002046FEF711F90120A8402168C1F8D00095
:103BB0000120A840C4F894000020D9E7D4F89C0064
:103BC00040F00800C4F89C000120D1E77047F0B530
:103BD000024692F89860012E01D0022E43D1C868A7
:103BE000072800D100BF086818BBC868072800D0A4
:103BF00000BFC86807280BD1088A4FF0605747EA12
:103C00000040CF6940EA07208F6940EA07040AE0D4
:103C1000087A80070F7B40EAC7600F8A40EA0740B6
:103C20004F6940EA0704D76E486807EB80031C60C1
:103C300017E0C868072800D000BF0F7B086940EA7A
:103C40004774C868072801D18D6903E00F7A486975
:103C500040EA8775176F486807EBC0031C601B1D9F
:103C60001D600020F0BDD2F89C0040F00200C2F8B8
:103C70009C000120F6E770B50446049D94F8980076
:103C800001280AD1080140EA820040EA43002843A3
:103C90002668C6F88000002070BDD4F89C0040F073
:103CA0000400C4F89C000120F6E77047704700004C
:103CB0002DE9F04304460D469C46002394F8988075
:103CC000B8F1020F74D1402D38D12068D0F8A0008F
:103CD00000F4FE0040B9D4F89C0040F02000C4F885
:103CE0009C000120BDE8F0832068D0F8A40000F01B
:103CF0007F0038B9D4F89C0040F48070C4F89C0070
:103D00000120EFE72068D0F8A400C0F3006040B1C4
:103D10002068D0F8A0004FF00109B9EBD07F00D1A6
:103D200001232068D0F8A400C0F305200344606C90
:103D30005843D4F8749009EB80014BE0412D38D101
:103D40002068D0F8B00000F4FE0038B9D4F89C0028
:103D500040F02000C4F89C000120C3E72068D0F8A0
:103D6000B40000F07F0038B9D4F89C0040F48070B3
:103D7000C4F89C000120B5E72068D0F8B400C0F377
:103D8000006040B12068D0F8B0004FF00109B9EBF5
:103D9000D07F00D101232068D0F8B400C0F3052003
:103DA0000344E06C5843D4F8789009EB800111E0AB
:103DB0006DE0206DA84207D8D4F89C0040F02000A8
:103DC000C4F89C0001208DE7606D6843D4F87C90B6
:103DD00009EB8001086800F080405060506820B90D
:103DE0000868C0F38A40106003E0086820F0604073
:103DF0001060086800F000509060086800F0004013
:103E00001061091D088880B2D0610868C0F30340C2
:103E1000D060086800F480105061086800F4001059
:103E200090610868C0F3066010620868C00F5062B5
:103E3000091D0F46002603E0B85D0CF80600761C4D
:103E4000DFF85C90D06819F80000B042F4D8402D3B
:103E500003D12068C0F8A83017E0412D03D12068B5
:103E6000C0F8B83011E0202D06D20120A840D4F8C7
:103E70000090C9F8980008E005F01F09012000FA39
:103E800009F0D4F80090C9F89C0000202AE7D4F883
:103E90009C0040F00800C4F89C00012022E70000CC
:103EA000C81D010801460A68D2F8C42002F03F008C
:103EB000704770472DE9F04F8DB00446EF48006819
:103EC0008707EE48001D006807EA80772068006DCC
:103ED00000F470482068406D00EA08082068006D12
:103EE00000F00F092068406D00EA09092068006DA4
:103EF00000F0F00A2068406D00EA0A0A2068006DB0
:103F000000F0715B2068406D00EA0B0B2068006DCB
:103F100000F060700C902068406D0C9908400C9087
:103F20002068456D2068066DC5F3002070B1C6F3AA
:103F3000002058B100BF4FF4807021680865002050
:103F4000CE49086000BF2046FFF7B3FFC5F38020CD
:103F5000C8B1C6F38020B0B12068D0F8DC000A9068
:103F60002068D0F8E4000A9908400A9000BF4FF496
:103F70008060216808650020C049086000BF2046B5
:103F80000A9900F0DCFC67B100BFBD4838402168E9
:103F90000865B80FB949086000BF39462046FFF7E9
:103FA00015FEB8F1000F0ED000BFB54808EA0000BA
:103FB000216808654FEA9870B049086000BF414623
:103FC000204600F0BEFCB9F1000F0ED000BFAC4897
:103FD00009EA0000216808654FEA9970A74908605E
:103FE00000BF4946204600F0C7FBBAF1000F0ED0D3
:103FF00000BFA3480AEA0000216808654FEA9A70EA
:104000009E49086000BF5146204600F077FCC5F38A
:10401000C02070B1C6F3C02058B100BF4FF400609B
:104020002168086500209549086000BF204600F01F
:1040300089FCC5F34020C8B1C6F34020B0B1206868
:10404000D0F8D8000B902068D0F8E0000B99084019
:104050000B9000BF4FF4007021680865002087496D
:10406000086000BF20460B9900F06AFCC5F3C04011
:1040700070B1C6F3C04058B100BF4FF400202168B2
:10408000086500207D49086000BF204600F072FBF3
:10409000C5F3004070B1C6F3004058B100BF4FF403
:1040A00080302168086500207449086000BF204600
:1040B00000F044FCC5F3804070B1C6F3804058B1B5
:1040C00000BF4FF480202168086500206B4908601C
:1040D00000BF204600F031FCC5F3404088B1C6F374
:1040E000404070B100BF4FF40030216808650020E7
:1040F0006249086000BFD4F89C0040F08000C4F81A
:104100009C000C9870B100BF5D490C980840216874
:1041100008650C98800F5949086000BF20460C992B
:10412000FFF7C4FDBBF1000F10D000BF54480BEAED
:104130000000216808654FEA9B705049086000BF85
:10414000D4F89C0040EA0B00C4F89C004D4920685C
:1041500088427DD16068806800F00300002877D035
:104160006068006A00F00F0009906068406A099971
:10417000084009906068006A00F0300008906068AC
:10418000406A0899084008906068006A00F4C070AE
:1041900007906068406A0799084007906068006A65
:1041A00000F4FC4006906068406A0699084006905A
:1041B0006068006A00F4F02005906068406A059924
:1041C000084005906068406A02906068006A01904B
:1041D000099830B10998616808622046099900F091
:1041E000A9FB089830B108986168086220460899D0
:1041F00000F0A2FB0298C0F38010A0B10198C0F3B8
:10420000801080B16068C06B000C04906068C06B67
:1042100000F03F0003904020616808622046DDE91D
:10422000032100F088FB079830B1079861680862A5
:104230002046079900F07DFB069840B1069861681A
:104240000862D4F89C0006990843C4F89C0000E07A
:104250000AE0059840B1059861680862D4F89C00AE
:1042600005990843C4F89C00D4F89C0010B120467E
:10427000FFF71BFD0DB0BDE8F08F000010A8004057
:10428000FFFFCF3F00A0004070B594B004464C2221
:10429000B34901A8FCF7CBF814B9012014B070BDE4
:1042A000B0492068884203D1206800F580706060C2
:1042B000A068B0F5407F00D100BF206C00B100BF06
:1042C000A06C00B100BF206D00B100BF206E00B136
:1042D00000BFD4E91710084400B100BF94F898005B
:1042E00028B9002084F89900204600F03DF92068A4
:1042F000806920F010002168886100F023FC0546E9
:104300000EE000F01FFC401B0A2809D998346068B1
:1043100040F001006060032004F898090120BDE727
:104320002068806900F008000828EAD020688069C9
:1043300040F001002168886100F004FC05460EE0B1
:1043400000F000FC401B0A2809D99834606840F04E
:1043500001006060032004F8980901209EE72068AE
:10436000806900F001000028EAD02068806940F0F0
:10437000020021688861207C012806D120688069BC
:1043800020F040002168886105E02068806940F0E5
:10439000400021688861607C012806D1206880691E
:1043A00040F480402168886105E02068806920F43D
:1043B000804021688861A07C012806D1206880693E
:1043C00020F480502168886105E02068806940F40D
:1043D0008050216888612068806920F44070A1685D
:1043E0000843216888612068806920F0A400216862
:1043F00088612068006920F0100021680861E06889
:10440000012806D12068806940F004002168886195
:1044100020E0E068F0B1E068022815D020688069EB
:1044200040F08000216888612068006940F0100039
:1044300021680861E06803280CD12068806940F099
:1044400020002168886105E02068806940F0200034
:1044500021688861207E401E4106E069401E41EAD5
:104460000020216A491E0843A18A491E40EA0140F2
:104470002168C861A068B0F5407F0FD1A06A401ED6
:10448000E16A491E40EA0121206B401E41EA001109
:10449000A08C401E41EA00402168C860206E38B1FF
:1044A0002068D0F8C000616E08432168C1F8C000E0
:1044B000D4E91710084460B12068D0F8C80020F093
:1044C000070001AAA16E52F8211008432168C1F823
:1044D000C800206C60B12068D0F8BC0020F0070054
:1044E00001AA616C52F8211008432168C1F8BC0090
:1044F000A06C68B12068D0F8BC0020F0700101AA5F
:10450000E06C52F8200041EA00102168C1F8BC00BC
:10451000206D68B12068D0F8BC0020F4E06101AAE9
:10452000606D52F8200041EA00202168C1F8BC000B
:104530000C492068884205D16068806820F003003B
:1045400061688860002044F8940FA0600120207109
:10455000943C2046FDF728FB064630469EE60000C8
:10456000D81D010800A0004010B5B6B004461421C3
:1045700030A8FBF775FFB82102A8FBF771FF764959
:104580002068884249D14FF400410020CDE9021053
:1045900048031D9002A801F0B9FD08B1FDF7D7FA54
:1045A0006E480068401C6D49086008460068012894
:1045B0000DD100BF6A48006840F480706849086007
:1045C0000846006800F48070019000BF00BF00BF83
:1045D00063480C38006840F0080061490C390860F5
:1045E0000846006800F00800019000BF00BF0320EB
:1045F0003090022031900020329033900920349086
:1046000030A9584800F0A0F900220521132000F03D
:10461000B5FB132000F09EFB9BE0534920688842C5
:1046200049D14FF400410020CDE9021048031D900C
:1046300002A801F06BFD08B1FDF789FA4748006850
:10464000401C464908600846006801280DD100BF9B
:104650004348006840F4807041490860084600689B
:1046600000F48070019000BF00BF00BF3C480C38D0
:10467000006840F002003A490C39086008460068BA
:1046800000F00200019000BF00BF602030900220C7
:1046900031900020329033900920349030A9334873
:1046A00000F052F900220521142000F067FB1420CD
:1046B00000F050FB4DE02E492068884249D14FF46C
:1046C00000410020CDE9021048031D9002A801F02E
:1046D0001DFD08B1FDF73BFA20480068401C1F494A
:1046E00008600846006801280DD100BF1C4800681A
:1046F00040F480701A4908600846006800F4807031
:10470000019000BF00BF00BF15480C38006840F0A2
:10471000080013490C3908600846006800F00800DA
:10472000019000BF00BF4FF4405030900220319004
:104730000020329033900520349030A9094800F0D1
:1047400003F9002205219F2000F018FB9F2000F0B4
:1047500001FB36B010BD000000A000400C0000249A
:10476000EC440258000C025800A400400004025817
:1047700000D400407047000030B58DB004460D46AF
:1047800001AB03AA40212046FFF792FA494920686D
:10479000884233D10398A0F2012030B1012809D01A
:1047A00002280CD0032814D10EE001A94248FCF7DE
:1047B000AEFB0EE001A94148FCF7A9FB09E001A905
:1047C0003F48FCF7A4FB04E001A93E48FCF79FFB2F
:1047D00000BF00BF9DF8040000F00F00052802D0C4
:1047E00006280AD104E001A93748FCF7BBFE04E023
:1047F00001A93648FCF7B6FE00BF59E034492068ED
:1048000088422BD10398A0F2012030B1012809D0B1
:1048100002280CD0032814D10EE001A92D48FCF782
:1048200076FB0EE001A92C48FCF771FB09E001A919
:104830002A48FCF76CFB04E001A92948FCF767FB58
:1048400000BF00BF9DF8040000F00F00052804D150
:1048500001A92448FCF786FE00BF29E02249206810
:10486000884225D10398A0F2012010B101280AD175
:1048700004E001A91D48FCF74AFB04E001A91C481B
:10488000FCF745FB00BF00BF9DF8040000F00F00DF
:10489000042802D005280AD104E001A91548FCF734
:1048A00061FE04E001A91448FCF75CFE00BF00BFF4
:1048B0000DB030BD00A00040705100240C53002406
:1048C000A8540024445600240862002410630024E5
:1048D00000A40040E05700247C5900241864002400
:1048E000B4650024A05E002400D40040685B00246E
:1048F000045D0024A85F0024B060002470470146D6
:1049000091F8980001280CD1022081F898000868DD
:10491000806920F001000A6890610020C1F89C00C5
:104920007047D1F89C0040F00400C1F89C000120C1
:10493000F6E7704770477047704770477047704799
:104940007047704770470000F8B502460B460021DB
:104950006D4DD2E001278F401E6806EA0704002C47
:1049600072D01E7906F00306012E04D01E7906F0DF
:104970000306022E13D190684F000326BE40B043B9
:104980004F00DE68BE4030439060506801268E4084
:10499000B0431E79C6F300168E40304350601E7936
:1049A00006F00306032E09D0D0684F000326BE4050
:1049B000B0434F009E68BE403043D0601E7906F081
:1049C0000306022E13D1CF0802F1200656F8270065
:1049D0004E07F70E0F26BE40B0434F07FF0E1E696D
:1049E000BE403043CF0802F1200646F82700106889
:1049F0004F000326BE40B0431E7906F003064F0069
:104A0000BE40304310605E6806F44036002E73D01E
:104A100000BF3E4E366846F002063C4F3E603E46C2
:104A2000366806F00206009600BF00BF384E8F08B9
:104A300056F827008E07370F0F26BE40B043354E7D
:104A4000B24202D1002629E056E0334EB24201D1F3
:104A5000012623E0314EB24201D102261EE0304E43
:104A6000B24201D1032619E02E4EB24201D10426F2
:104A700014E02D4EB24201D105260FE02B4EB2427A
:104A800001D106260AE02A4EB24201D1072605E0EE
:104A9000284EB24201D1092600E00A268F073F0FB7
:104AA000BE4030431A4E8F0846F827004FF0B046FC
:104AB0003068A0435E6806F4801606B120434FF0CC
:104AC000B04630607068A0435E6806F4001606B118
:104AD00020434FF0B04670606868A0435E6806F4FB
:104AE000003606B1204368602868A0435E6806F47B
:104AF000803606B120432860491C1E68CE40002E37
:104B00007FF428AFF8BD000080000058F44402583C
:104B10000804005800000258000402580008025817
:104B2000000C0258001002580014025800180258D5
:104B3000001C0258002402580AB1816101E00B04F4
:104B4000836170470148006870470000100000242E
:104B50000348006803490978084401490860704720
:104B6000100000241800002410B5032000F044F9C0
:104B700002F040FB10490968C1F303210F4A515C60
:104B800001F01F0120FA01F40B48006800F00F004B
:104B90001146085C00F01F0024FA00F00849086084
:104BA000084804600F2000F00FF808B1012010BD84
:104BB00000F0B8F80020FAE7184402584C1E01082B
:104BC000200000241C00002470B58AB00446102C7C
:104BD0000AD2002221462C2000F0D0F82C2000F030
:104BE000B9F81948046002E001200AB070BD00BFA6
:104BF0001648006840F00200144908600846006842
:104C000000F00200009000BF00BF01A902A802F05E
:104C100071FA02F0DDFA45000D48B5FBF0F0461ED2
:104C20000C480D49086040F2E7310B48C16046600E
:104C300000210161816003F017F818B9064803F0FC
:104C4000CDF8D2E70120D0E714000024F044025848
:104C500040420F0000040140D80700244178154A63
:104C6000116014490831096821F00101114A083224
:104C70001160121F41681160017B0907C27A41EA85
:104C80000261827A41EAC241427B41EA8241827BEF
:104C900041EA4241C27B41EA0241427A41EA0221B1
:104CA000027A41EA420102781143024A0832116055
:104CB0007047000098ED00E000BF00BF00BFBFF3E9
:104CC0005F8F00BF00BF00BF0548006820F4803040
:104CD00003490860002002497031086070470000F5
:104CE00024ED00E040F001010D4A11600C497039DB
:104CF000096841F480310A4A703A116000BF00BF70
:104D000000BFBFF34F8F00BF00BF00BF00BF00BF99
:104D100000BFBFF36F8F00BF00BF00BF7047000030
:104D200094ED00E008B500BF0948006840F00200BB
:104D3000074908600846006800F00200009000BFC4
:104D400000BF00220F21901E00F018F808BD0000DF
:104D5000F44402580146084600280DDB00BF00BF9E
:104D600000F01F0301229A4043099B0003F1E02356
:104D7000C3F8002100BF00BF00BF70472DE9F05FFE
:104D800080460D46164609F0D9F9074639462A46A7
:104D9000334601F00700C0F1070ABAF1040F02D947
:104DA0004FF0040A01E0C0F1070AD14600F1040AFD
:104DB000BAF1070F02D24FF0000A01E0A0F1030A96
:104DC000D4464FF0010A0AFA09FAAAF1010A0AEADE
:104DD000020A0AFA0CFA4FF0010B0BFA0CFBABF1CA
:104DE000010B0BEA030B4AEA0B042146404609F08B
:104DF000ADF9BDE8F09F000000BF00F00702064BD0
:104E000019684FF6FF031940044B0B4343EA022194
:104E1000014B196000BF70470CED00E00000FA057F
:104E200001460A680120C1F8D804002081F8CC04AA
:104E3000906940F000609061506D024B18435065DE
:104E4000002070470300001070470246106841625E
:104E500000207047F0B5034615461868446A21B92A
:104E600044EA05401E68B06219E01868806A04EBE5
:104E70001044002208E0186800F5827050F8220003
:104E800004EB1044501CC2B2481E9042F3D844EACE
:104E90000547186800F582704E1E40F82670002005
:104EA000F0BD10B50446D4F8E00407F0ADFC10BD29
:104EB00070B504460D4605EBC50304F1140101EB82
:104EC0008301CA682946D4F8E00407F098FB70BD56
:104ED00070B504460D4605EBC50304F5157101EBED
:104EE0008301CA682946D4F8E00407F00CFC70BDC1
:104EF00010B50446D4F8E00407F089FC10BD2DE994
:104F0000F04104460D4605F08000802808D105F0E8
:104F10000F0000EBC00104F1140000EB810607E074
:104F200005F00F0000EBC00104F5157000EB8106E1
:104F30003146206808F0C0FE07463846BDE8F081DB
:104F400070B504460E4606F0800080280AD106F0AF
:104F50000F0000EBC00104F1140000EB81050120FB
:104F6000687009E006F00F0000EBC00104F5157051
:104F700000EB81050020687006F00F00287000BF6C
:104F800094F89404012801D1022070BD012084F816
:104F9000940400BF2946206808F020FA00BF0020D2
:104FA00084F8940400BF00BFEFE770B504460E46D6
:104FB00006F00F002179884201D9012070BD06F06A
:104FC000800080280AD106F00F0000EBC00104F138
:104FD000140000EB81050120687009E006F00F0065
:104FE00000EBC00104F5157000EB8105002068702E
:104FF0000020A87006F00F00287000BF94F89404F9
:10500000012801D10220D9E7012084F8940400BFCF
:105010002946206808F0DCFB00BF002084F89404D7
:1050200000BF00BFCAE7024601F00F0000EBC0035B
:1050300002F5157000EB8300406970472DE9F047D9
:1050400005460E4690461F464FF0000906F08000C8
:1050500080280AD106F00F0000EBC00105F1140012
:1050600000EB81040120607009E006F00F0000EB06
:10507000C00105F5157000EB81040020607006F09A
:105080000F002070C8F30A00A0602771607808B193
:1050900020786083022F01D10020607100BF95F855
:1050A0009404012802D10220BDE8F087012085F890
:1050B000940400BF2146286808F09AF800BF002039
:1050C00085F8940400BF4846EEE72DE9F041054617
:1050D0000E461746984606F00F0000EBC00105F596
:1050E000157000EB8104E760C4F810800020606157
:1050F000607006F00F002070A879012800D1E761E8
:10510000AA792146286808F0F7FB0020BDE8F08165
:1051100070B504460D4605F00F002179884201D98B
:10512000012070BD05F0800080280AD105F00F0035
:1051300000EBC00104F1140000EB81060120707047
:1051400007E005EBC50104F5157000EB81060020B2
:1051500070700120B07005F00F00307000BF94F83F
:105160009404012801D10220DBE7012084F8940493
:1051700000BF3146206808F072FB05F00F0028B927
:10518000A17904F29C42206808F0EAFA00BF0020EE
:1051900084F8940400BF00BFC3E72DE9F041054641
:1051A0000E461746984606F00F0000EBC00105F1C9
:1051B000140000EB8104E760C4F8108000206061F7
:1051C0000120607006F00F002070A879012800D13E
:1051D000E761AA792146286808F08EFB0020BDE827
:1051E000F0812DE9FE4F0446D4F800B05E462068F9
:1051F00008F044FE002874D1206808F07EFE08B94B
:10520000BDE8FE8F40F608008059C0F30D20C4F8B9
:10521000D404206808F071FE00F00200022805D1D5
:105220002068406900F0020021684861206808F0A9
:1052300064FE00F01000102845D12068806920F03D
:10524000100021688861DBF8209009F00F0000EB66
:10525000C00104F5157000EB810AC9F34340022830
:105260001AD147F6F07009EA000030B3C9F30A1208
:105270005846DAF80C1008F045FEC9F30A11DAF8BE
:105280000C000844CAF80C00C9F30A11DAF814003B
:105290000844CAF8140010E0C9F3434006280CD1B2
:1052A000082204F29C41584608F02CFEC9F30A116A
:1052B000DAF814000844CAF814002068806940F045
:1052C000100021688861206808F017FE00F40020B3
:1052D000B0F5002F7BD10025206808F0DEFD02909C
:1052E00072E003E3029800F00100002868D0E9B200
:1052F000206808F0F5FD804608F0010048B1012162
:1053000006F5306000EB451081602946204604F028
:1053100013FE08F00800082809D1082106F53060BE
:1053200000EB451081602946204604F0D3FD08F0CB
:105330001000102805D1102106F5306000EB451053
:10534000816008F00200022824D1DBF8140000F08C
:105350008000802807D140F60400805940F4806125
:1053600040F60400815105EBC50104F5157000EB12
:10537000810A9AF80300012806D100208AF8030068
:10538000E9B2204600F0BDFA022106F5306000EBDC
:105390004510816008F02000202805D1202106F565
:1053A000306000EB4510816008F40050B0F5005FFC
:1053B00006D14FF4005106F5306000EB45108160D6
:1053C0006D1C029840080290029800288AD120683B
:1053D00008F093FD00F48020B0F5802F7DD1206887
:1053E00008F051FD029000259AE0029800F00100BB
:1053F000002873D0E9B2206808F059FD804608F013
:105400000100F0B305F00F0101208840019040F643
:1054100034008159019821EA000040F63401885196
:10542000012106F5106000EB45108160A07901288C
:1054300024D105EBC50104F1140000EB810005EB5C
:10544000C502C16804F1140000EB820080680144C9
:1054500005EBC50204F1140000EB8200C1606DB9D8
:1054600005EBC50104F1140000EB8100006928B9C7
:1054700004F29C420121206808F072F9E9B220464A
:1054800000E001E0FFF714FD08F00800082805D14E
:10549000082106F5106000EB4510816008F010004F
:1054A000102805D1102106F5106000EB4510816031
:1054B00008F04000402805D1402106F5106000EBBF
:1054C0004510816008F0020002281DD12946584687
:1054D00008F097FC05EBC50101E025E01CE004F1B4
:1054E000140000EB810A9AF80300012806D100207D
:1054F0008AF80300E9B2204600F0FAF9022106F525
:10550000106000EB4510816008F08000802803D116
:105510002946204604F0B2FD6D1C02984008029016
:10552000029800287FF461AF206808F0E6FC00F0E4
:105530000040B0F1004F1CD140F60400805920F02B
:10554000010140F60400815194F8CC04012807D1F0
:10555000002084F8CC0400212046FFF775FC02E00F
:10556000204600F0E5FA2068406900F0004021681C
:105570004861206808F0C1FC00F40060B0F5006FDD
:105580000ED140F60800805900F0010010B120460D
:1055900000F026FB2068406900F400602168486143
:1055A000206808F0AAFC00F00060B0F1006F19D18B
:1055B0002068406900F000602168486194F8CC04DC
:1055C00068B9012084F8CC042068406DC0F38300E2
:1055D000C4F8D00401212046FFF736FC02E0204643
:1055E00000F0FEFA206808F088FC00F48050B0F566
:1055F000805F7ED140F60400805920F0010140F622
:10560000040081511021206808F0FBFB002732E0E4
:105610004FF67F3106F5106000EB4710816006F50C
:10562000106000EB4710006820F4001106F51060D0
:1056300000EB471001604FF67F3106F5306000EB5C
:105640004710816006F5306000EB4710006820F4D9
:10565000001106F5306000EB4710016006F5306080
:1056600000EB4710006840F0006106F5306000EB89
:10567000471001607F1C2079B842C9D840F61C0051
:10568000805940F0011140F61C008151E07B70B15F
:10569000D6F8840840F00B01C6F8841840F64400A0
:1056A000805940F00B0140F6440081510FE040F674
:1056B0001400805942F22B01084340F6140188512E
:1056C000081F805940F00B014FF401608151D6F85A
:1056D000000820F4FE60C6F80008A17904F29C429C
:1056E000206808F03DF82068406900F48050216887
:1056F00000E000E04861206808F0FFFB00F4005083
:10570000B0F5005F17D1206807F0DAFD206808F0D7
:10571000A2FBE07101F024FD0090E279206800997D
:1057200008F072FC204600F0EBF92068406900F4B4
:10573000005021684861206808F0DFFB00F0080095
:10574000082808D1204600F0FAF92068406900F0E6
:10575000080021684861206808F0CFFB00F0800055
:10576000802818D1DBF8180020F08000CBF8180052
:1057700001250DE005EBC50104F5157000EB810076
:10578000C078012803D1E9B22046FFF7B8FB6D1CB1
:105790002079A842EED8206808F0AFFB00F4801012
:1057A000B0F5801F2DD1012522E006F5106000EB39
:1057B0004510D0F8009005EBC50104F1140000EB92
:1057C00081000079012812D109F00040B0F1004FAA
:1057D0000DD1012105EBC50204F1140000EB82009C
:1057E000C170E8B240F080012046FFF788FB6D1CD5
:1057F0002079A842D9D82068406900F48010216837
:105800004861206808F079FB00F40010B0F5001F33
:1058100044D1012538E006F5306000EB4510D0F8A2
:10582000009005EBC50104F5157000EB81000079CF
:10583000012828D109F00040B0F1004F23D194F89D
:10584000D40400F00100C9F3004188421BD10121BA
:1058500005EBC50204F5157000EB8200C170DBF8A2
:10586000180040F08000CBF81800DBF8140000F0BE
:10587000800040B940F60400805940F4007140F6C1
:105880000400815103E06D1C2079A842C3D800BFF9
:105890002068406900F4001021684861206808F021
:1058A0002CFB00F08040B0F1804F08D12046FFF77C
:1058B000F8FA2068406900F080402168486120685B
:1058C00008F01BFB00F0040004280FD12068D0F87A
:1058D000049009F00400042802D12046FFF708FBD9
:1058E0002068406840EA09002168486000BF87E4FA
:1058F00070B504460D462946D4F8E00406F0F8FFDA
:1059000070BD70B504460D462946D4F8E00407F092
:1059100013F870BD38B504460CB9012038BD94F8B1
:10592000950428B9002084F89404204600F0A2F8D9
:10593000032084F89504206807F00AFF207C8DF886
:10594000000094E80F0007F0CFFC20B1022084F89B
:1059500095040120E2E70021206808F003FB20B154
:10596000022084F895040120D8E7002531E00121C8
:1059700005EBC50204F1140000EB8200417005EB59
:10598000C50104F1140000F8215005EBC50100EB3E
:1059900081004583002105EBC50204F1140000EBF2
:1059A0008200017105EBC50204F1140000EB8200D6
:1059B000816005EBC50204F1140000EB8200C160B8
:1059C00005EBC50204F1140000EB82000161681CC4
:1059D000C5B22079A842CADC00252AE0002105EBE7
:1059E000C50204F5157000EB8200417005EBC5019E
:1059F00004F5157000F82150002105EBC50200EBFD
:105A00008200017105EBC50204F5157000EB820000
:105A1000816005EBC50204F5157000EB8200C160E2
:105A200005EBC50204F5157000EB82000161681CEE
:105A3000C5B22079A842D1DC207C8DF8000094E822
:105A40000F0007F095FD20B1022084F89504012095
:105A500064E700206074012084F89504207B01280D
:105A600002D12046FFF7DCF9206807F06FFD002027
:105A700054E7000010B5B0B00446B82102A8FAF708
:105A8000EFFC1D492068884234D11C48006840F46E
:105A900080501A49086000BF18480068C0F34030C1
:105AA0000028F9D04FF480210020CDE902104FF4F6
:105AB0004010239002A800F029FB08B1FCF747F83A
:105AC00000F0D8F800BF0D48D830006840F00070F2
:105AD0000A49D83108600846006800F0007001905B
