:020000040800F2
:10000000A88200246D040008497A0008BB73000828
:10001000197900080D090008CDAE000800000000A5
:10002000000000000000000000000000AD03000818
:10003000C7170008000000000904000885810008B7
:100040008B0400088B0400088B0400088B04000854
:100050008B0400088B0400088B0400088B04000844
:100060008B0400088B0400088B0400088B04000834
:100070008B040008E10F0008ED0F00088B04000856
:100080008B0400088B0400088B040008E9170008A3
:10009000F51700088B0400088B0400088B04000887
:1000A0008B0400088B0400088B0400088B040008F4
:1000B0008B0400088B040008118300088B040008DF
:1000C0008B0400088B0400088B0400088B040008D4
:1000D0008B0400088B0400088B0400088B040008C4
:1000E0008B0400088B040008000000008B0400084B
:1000F0002D8300088B0400088B0400088B04000883
:100100008B0400088B0400088B0400088B04000893
:100110008B040008BD8700088B0400088B040008CE
:100120008B0400088B0400088B0400088B04000873
:100130008B0400088B0400088B0400088B04000863
:1001400000000000000000000000000000000000AF
:100150008B0400088B0400088B0400088B04000843
:100160008B0400088B0400088B0400088B04000833
:100170008B0400086D7A00088B0400080000000062
:100180008B0400088B040008C98700088B04000852
:100190008B0400088B0400088B0400088B04000803
:1001A0008B0400088B0400088B040008000000008A
:1001B0008B0400088B0400088B0400088B040008E3
:1001C0008B0400088B040008000000000000000001
:1001D00000000000000000008B0400080000000088
:1001E000000000000000000000000000000000000F
:1001F00000000000000000008B0400088B040008D1
:100200008B0400088B040008000000008B04000829
:100210008B0400088B0400088B0400088B04000882
:100220008B040008000000008B04000800000000A0
:100230008B0400088B040008000000008B040008F9
:100240008B0400088B0400088B0400088B04000852
:100250008B0400088B0400088B0400088B04000842
:100260008B0400088B0400088B0400088B04000832
:100270008B0400088B0400088B04000800000000B9
:100280008B0400088B0400088B0400088B04000812
:10029000000000008B0400088B0400080000000030
:1002A000000000008B0400088B0400088B04000889
:1002B0008B0400088B0400088B0400080118000858
:1002C0008B0400088B0400088B04000800F002F87F
:1002D00000F05CF80AA090E8000C82448344AAF184
:1002E0000107DA4501D100F051F8AFF2090EBAE882
:1002F0000F0013F0010F18BFFB1A43F0010318475A
:10030000C8CC0000E8CC00000A444FF0000C10F804
:10031000013B13F0070408BF10F8014B1D1108BF83
:1003200010F8015B641E05D010F8016B641E01F823
:10033000016BF9D113F0080F1EBF10F8014BAD1C73
:100340000C1B09D16D1E58BF01F801CBFAD505E091
:1003500014F8016B01F8016B6D1EF9D59142D6D3EB
:10036000704700000023002400250026103A28BF13
:1003700078C1FBD8520728BF30C148BF0B60704717
:100380001FB50CF087FD1FBD10B510BD00F0E8F9DA
:100390001146FFF7F5FF0AF083FF00F006FA03B4F9
:1003A000FFF7F2FF03BC00F009FA00002C4B1968BC
:1003B0000868B0E8F04F80F30988BFF36F8F4FF003
:1003C000000080F3118870470000000008480068B2
:1003D000006880F308884FF0000080F3148862B64C
:1003E00061B6BFF34F8FBFF36F8F00DF00BF00BF59
:1003F00008ED00E0DFF80C00016841F470010160D5
:10040000704700BF88ED00E0EFF30980BFF36F8F06
:10041000134B1A681EF0100F08BF20ED108A20E958
:10042000F04F106009B44FF0500080F31188BFF313
:100430004F8FBFF36F8F0BF0E7FE4FF0000080F39C
:10044000118809BC19680868B0E8F04F1EF0100F59
:1004500008BFB0EC108A80F30988BFF36F8F704734
:1004600024000024EFF30580704700000A4880470D
:100470000A4880470A480047FEE7FEE7FEE7FEE736
:10048000FEE7FEE7FEE7FEE7FEE7FEE70548064972
:10049000064A074B70470000CD1700083982000854
:1004A000CD020008A87C0024A8820024A87E002495
:1004B000A87E002453EA020C00F069802DE9F04B7D
:1004C0004FF00006002B1FBFB3FA83F503FA05F4C3
:1004D00024FA05F65E4012BF1643B2FA82F502FA1C
:1004E00005F4C5F120051EBF22FA05FC44EA0C0400
:1004F000203556EA044C4FEA144418BF641C4FF0F0
:1005000000084FF00009904271EB030C39D3002929
:1005100019BFB1FA81F701FA07F6B0FA80F700FACD
:1005200007F6C7F120071EBF20FA07FC46EA0C06B3
:100530002037B6FBF4FCA7EB0507103F07F01F0BB5
:10054000CBF120060CFA0BFB2CFA06F644BFB3469F
:100550000026202FA4BF5E464FF0000B5BEA060C7E
:1005600008BF4FF0010B19EB0B09ABFB027C48EB0A
:100570000608C01B06FB02CC0BFB03CC71EB0C0185
:10058000C1E70B46024641464846BDE8F08B13B52D
:100590004FF000004FF00001AFF30080BDE81C40B9
:1005A0007047032A40F2308010F0030C00F01580F1
:1005B00011F8013BBCF1020F624498BF11F801CB66
:1005C00000F8013B38BF11F8013BA2F1040298BFCB
:1005D00000F801CB38BF00F8013B11F0030300F035
:1005E0002580083AC0F0088051F8043B083A51F8D9
:1005F00004CBA0E80810F5E7121D5CBF51F8043BDE
:1006000040F8043BAFF30080D20724BF11F8013B50
:1006100011F801CB48BF11F8012B24BF00F8013BB2
:1006200000F801CB48BF00F8012B704710B5203A05
:10063000C0F00B80B1E81850203AA0E81850B1E89B
:100640001850A0E81850BFF4F5AF5FEA027C24BF51
:10065000B1E81850A0E8185044BF18C918C0BDE848
:1006600010405FEA827C24BF51F8043B40F8043B11
:1006700008BF7047D20728BF31F8023B48BF11F8C6
:10068000012B28BF20F8023B48BF00F8012B704720
:1006900002F0FF0343EA032242EA024200F037B8C5
:1006A0004FF0000200B5134694469646203922BF0B
:1006B000A0E80C50A0E80C50B1F12001BFF4F7AF56
:1006C000090728BFA0E80C5048BF0CC05DF804EB38
:1006D000890028BF40F8042B08BF704748BF20F8A6
:1006E000022B11F0804F18BF00F8012B70477047A4
:1006F0007047704710B500F02BF8006810BD10B5BA
:10070000044600F025F8046010BD4FF000020429F3
:10071000C0F0128010F0030C3FF4C4AFCCF1040C15
:10072000BCF1020F18BF00F8012BA8BF20F8022B64
:10073000A1EB0C01FFF7B6BF5FEAC17C24BF00F854
:10074000012B00F8012B48BF00F8012B7047000077
:1007500000487047447C002400487047447C0024D3
:100760007546FFF7F9FFAE4605006946534620F08F
:100770000700854618B020B5FFF788FEBDE8204089
:100780004FF000064FF000074FF000084FF0000B4D
:1007900021F00701AC46ACE8C009ACE8C009ACE800
:1007A000C009ACE8C0098D46704710B50446AFF3E8
:1007B00000802046BDE81040FFF7F1BD0149182038
:1007C000ABBEFEE7260002007047000070B59AB08D
:1007D000002412941394022514950126159616945C
:1007E000179412A9354802F0DAFB08B100F0ECFFCB
:1007F0000222324800231146009402F014FC08B192
:1008000000F0E2FF2D480022012102F04FFB08B169
:1008100000F0DAFF294803F0FAF808B100F0D4FF3D
:100820000A940B940C950D960E940F940AA92448E3
:1008300002F0B5FB08B100F0C7FF022220480023F8
:100840001146009402F0EFFB08B100F0BDFF1C4818
:100850000022012102F02AFB08B100F0B5FF184880
:1008600003F0D5F808B100F0AFFF029403950495AA
:1008700005960694079402A9124802F090FB08B16D
:1008800000F0A2FF02220F4800231146009402F05C
:10089000CAFB08B100F098FF0A480022012102F0CB
:1008A00005FB08B100F090FF064803F0B0F80028FF
:1008B00001D000F089FF1AB070BD0000980200243A
:1008C00038030024D803002408B52420054B0090E9
:1008D000A3F1320202480168243108F081FB08BD0F
:1008E0001005002432600024002141600121417084
:1008F0007047407870470121417000214160704786
:10090000022141707047012141707047FEE70428C1
:100910004FF00000704700207047000010B50549F7
:100920000022054808F082FD0449034808F070FDE4
:10093000002010BD406D0024646000244065002448
:1009400010B50146034808F063FD024808F034FD85
:10095000002010BD64600024002070472DED028B44
:1009600082B0664FDFF89881DFF89891DFF898A1A0
:10097000DFF898B1664C0AF0DFFC05466068E0BB22
:1009800094ED180A9FED638AD7F890115B4820EE2A
:10099000080A884794ED190AD8F89011584820EEB3
:1009A000080A884794ED1A0AD9F89011554820EEA4
:1009B000080A884794ED1B0ADAF89011524820EE95
:1009C000080A884794ED180A9FED538ADBF89011C6
:1009D0004E4820EE080A8847504894ED190AD0F88E
:1009E000901120EE080A88474D484E4ED0F89011DD
:1009F00096ED000A88474C4800E004E0D0F89011DA
:100A000096ED000A8847494890F8200028B1E80789
:100A100069D0616F3E48884765E045480078E0BB93
:100A200044480078C8B3012802D002285BD14BE0CB
:100A30009AED3B0A4FF40075BDEEC00A10EE100AA5
:100A400099ED3B0A00B2BDEEC00A10EE101A09B2D1
:100A5000CDE9001098ED3B0A2946BDEEC00A10EE24
:100A6000100A97ED3B0A03B2BDEEC00A10EE100A61
:100A700002B2314800F086FA2B48294990ED3B0A32
:100A8000BDEEC00A10EE100A91ED3B0A00B2BDEEB9
:100A9000C00A10EE101A09B200E024E0CDE90010FF
:100AA0001E48294690ED3B0ABDEEC00A10EE100A22
:100AB0009BED3B0A03B2BDEEC00A10EE100A02B273
:100AC0001E4800F05FFA0EE01D48007858B101287A
:100AD00007D0022807D1616F0D4888470BF068F9ED
:100AE00001E00AF091FA144802F08CFB134802F07E
:100AF00089FB01200AF012FC3DE70000C0500024F1
:100B00005C520024F85300249455002430570024EC
:100B1000485000240000484200004843CC580024BC
:100B2000C85C002468010024645E00247001002475
:100B30006D0100246E010024980200243803002473
:100B40006C01002470B504462DED048B4A4DA88835
:100B5000DFED4A8AF0EE680A9FED499A4FF4E066AD
:100B6000C0213246B0EE490A0AF072FA00EE100ACD
:100B7000B8EEC00A84ED170AA888C021F0EE680A12
:100B8000B0EE490A32460AF063FA00EE100AA8886D
:100B9000C021F0EE680AB8EEC08AB0EE490A3246CB
:100BA0000AF056FA4042324600EE100A2888C02168
:100BB000F0EE480AB8EEC00A0AF04AFA404200EEE7
:100BC000100AB8EEC00A84ED140AA888C021F0EE1D
:100BD000680AB0EE490A32460AF03AFA00EE100A04
:100BE000A888C021F0EE680AB8EEC08AB0EE490AC3
:100BF00032460AF02DFA4042324600EE100A68886A
:100C0000C021F0EE480AB8EEC00A0AF021FA00EE60
:100C1000100AB8EEC00A84ED150AE888C021F1EE8A
:100C2000040AB9EE040A32460AF012FA00EE100A7B
:100C3000DFED140AB8EEC00A20EE200A84ED160A91
:100C4000D4ED140AD4ED151A30EEA11A31EE002AB3
:100C500084ED182A70EEE10A70EE801AC4ED191ABC
:100C600031EE401A84ED1A1A30EEC00A84ED1B0AE8
:100C7000BDEC048B70BD0000700100240000C84270
:100C800000000000272021412DE9FF4755480021A1
:100C900007F046FA534E3046B1688847524801245F
:100CA000002540F201274FF40078504B3A46414668
:100CB000CDE902404E48CDE9004500F01BF94D4812
:100CC00040F20229494B4A46CDE900454146CDE96B
:100CD0000240494800F00EF9484840F2032A434BCD
:100CE0005246CDE900454146CDE90240444800F076
:100CF00001F94448FA1C3D4B4146CDE90045CDE998
:100D00000240414800F0F6F800953A463F48414617
:100D1000CDE9015403903E4B3E4800F0EBF80095BE
:100D20004A463D484146CDE901540390384B3B4883
:100D300000F0E0F83A4F5246354B414639480095AD
:100D4000CDE90247019500F0D5F8314B52463648BF
:100D50004146CDE902470095019500F0CBF8726C51
:100D6000304623499047726C304623499047726C55
:100D7000304623499047726C3046234990472B48B0
:100D800030672B48706703212A4807F0C9F9294CBE
:100D90002046A16888470225144B072626481022C2
:100DA0000521CDE9006500F095FB104B102223488A
:100DB0000621CDE9006500F08DFB626C20461E49DE
:100DC0009047626C20461D4990471B480021D0F88F
:100DD000F820904719480021D0F8F82004B0BDE869
:100DE000F047104748500024B8000024980200241F
:100DF000C0500024D00000245C520024E8000024ED
:100E0000F853002400010024945500241801002404
:100E1000380300243057002430010024CC5800242B
:100E200048010024C85C0024645E0024450B0008CF
:100E3000410E0008685A0024B85A0024C05B002400
:100E40009FED050A80ED180A80ED190A80ED1A0A57
:100E500080ED1B0A70470000000000004A78097806
:100E600042EA0121A0F86C11A0F87011704730B56A
:100E7000027F002A08D0012A03D0022A01D0052AC5
:100E800036D18A7980F86A2100F5B27003894381EE
:100E90000C784A7842EA042202818D78CC7844EAC0
:100EA000052404804C79097944EA012109B26FF0E4
:100EB000040491FBF4F14180A0F5B270D11AB1F5B0
:100EC000805F05DDD0F87411491EC0F8741107E089
:100ED00011F5805F04DAD0F87411491CC0F8741160
:100EE00000F5B870416802EB41310288891A8160CF
:100EF00030BD0000F8B50446154607A81A46069B03
:100F0000C1C8E9B20090204606F038FD04F5B0747F
:100F100024F8A05C184860631848A0631848206350
:100F20000020A080E0802081A072A081E08120824A
:100F30006061A06120772085E062443CC4F86200D3
:100F4000C4F86600A4F86A0014F8FF0CA4F58E74C7
:100F500048B101280FD104F58A703A463146BDE800
:100F6000F84006F097BE04F1C4003A463146BDE8A9
:100F7000F84006F08FBEF8BD6F0E00085D0E000849
:100F8000ED79000870B58CB0DDE9104503910021C2
:100F900004910591082606960791089109910A91F6
:100FA0000B91110A8DF804108DF80520190A8DF89F
:100FB00006108DF80730210A8DF808108DF80940C9
:100FC000290A8DF80A108DF80B5001AA03A901F027
:100FD000AFFF024908700CB070BD0000A4000024EF
:100FE000014801F085B9000038060024014801F0ED
:100FF0007FB90000B006002410B52C4A0168914268
:101000003AD02A4A1832914236D0284A3032914298
:1010100032D0264A483291422ED0244A6032914240
:101020002AD0224A7832914226D0204A90329142E8
:1010300022D01E4AA83291421ED01D4A91421BD096
:101040001B4A1832914217D0194A3032914213D0BC
:10105000174A483291420FD0154A603291420BD064
:10106000134A7832914207D0114A9032914203D00C
:101070000F4AA832914214D1CAB2103A1823B2FBD7
:10108000F3F20C4C02F00703E35CC365032A04D9B6
:101090006FF30901091D816506E06FF309018165A0
:1010A00002E021F0FF018165806D10BD100002405B
:1010B000100402400CCF000810B501680123224C37
:1010C000CAB2A1421BD0204C1434A14217D01E4CEE
:1010D0002834A14213D01C4C3C34A1420FD01A4CEE
:1010E0005034A1420BD0184C6434A14207D0164CA6
:1010F0007834A14203D0144C8C34A1420FD1083A69
:101100001421B2FBF1F1114A02EB810202660F4A8F
:101110008032426601F01F018B40836610BD103A99
:101120001824B2FBF4F20A4C2144A82900D8083252
:10113000084901EB8201016606498031416602F0EF
:101140001F018B40836610BD085402580058025896
:10115000F0FBFDBF000802400279521E072A31D879
:10116000194B016899421BD0174B1433994217D081
:10117000154B2833994213D0134B3C3399420FD06F
:10118000114B503399420BD00F4B6433994207D027
:101190000D4B7833994203D00B4B8C33994207D1D6
:1011A0000A4901EB8201C16608494031016706E046
:1011B000074901EB8201C166054940310167012100
:1011C0009140416770470000085402580059025886
:1011D00000090240014610B500208B694FF0C07431
:1011E0008A6A002B0ED0B3F5005F1AD062B3012AD1
:1011F0002AD0022A28D0032A03D1C96AC90100D5FE
:10120000012010BD1AB1012A06D0022AF9D1C96AFB
:10121000C901F6D5012010BDC96AA142FBD1012048
:1012200010BD52B1012A0AD0022A06D0032AF7D1F2
:10123000C96AA142F4D1012010BD012010BDC96AC4
:10124000C901FBD5012010BD012010BD30B52D4DC9
:101250000468AC423AD02B4D1835AC4236D0294DFB
:101260003035AC4232D0274D4835AC422ED0254DDA
:101270006035AC422AD0234D7835AC4226D0214D82
:101280009035AC4222D01F4DA835AC421ED01E4D29
:10129000AC421BD01C4D1835AC4217D01A4D30351E
:1012A000AC4213D0184D4835AC420FD0164D6035C6
:1012B000AC420BD0144D7835AC4207D0124D90356E
:1012C000AC4203D0104DA835AC420DD163608368A9
:1012D000402B04D0036899600068C26030BD036889
:1012E0009A600068C16030BD63608368402B04D0A1
:1012F000036899600068C26030BD03689A60006846
:10130000C16030BD100002401004024000B58BB037
:10131000827F029200220392049208230593069290
:101320000792089209920A92FF238DF800308DF8F7
:1013300001308DF802308DF803308DF804308DF8CF
:1013400005308DF80630002906D001290BD002297E
:101350000FD0032914D110E0FC218DF807100121D2
:1013600080F8C4100CE0FD218DF8071080F8C4202F
:1013700006E0FE218DF8071002E0FB218DF8071032
:1013800020306A4602A901F0D3FD0BB000BD000079
:101390002DE9F04104460D462DED028B6978A878C1
:1013A00040EA0122E8780101287941EA10166979BA
:1013B00000F00F0041EA0027F2EE090AB3EE0E8AB0
:1013C000F2EE048A207F042803D1DFED390A9FED75
:1013D000398A2878000904F8C40F94ED010A84EDD5
:1013E000020A10211046B1EE600A0AF005FD84EDF4
:1013F000010A0C213046F0EE480AB1EE480A0AF024
:10140000FBFC84ED040A0C213846F0EE680ABAEEC3
:10141000040A0AF0F1FC84ED050AA8792076E8793F
:10142000607694ED010AD4ED020A2349C43C70EEC3
:10143000600A10EE900A884205DDD4F8E000001F33
:10144000C4F8E00009E010EE900A1C49884204D973
:10145000D4F8E000001DC4F8E000B7EEC00A9FED2C
:10146000181B09F045FDB7EEC00B84ED340A10EEF1
:10147000100A1549DFED150A884204DD30EE600AD6
:1014800084ED340A08E010EE100A1149884203D9AD
:1014900030EE200A84ED340A94F8C400002802D10A
:1014A000012084F8C400BDEC028BBDE8F08100008F
:1014B000560E494100003442D00FC940D00FC9C078
:1014C00000000000FA211940D00F4940D00FC94058
:1014D000D00F49C038B5044615461A46DDE9043038
:1014E000C9B20090204606F049FAC43465700A4833
:1014F00060630A48E0630A4820640A48A0639FEDDD
:101500000A0A84ED010A84ED020A84ED030A84EDDF
:10151000040A84ED050A38BD0D1300082D150008D6
:101520005917000891130008000000002DE9F0434E
:10153000F0EE402A04462DED068BB0EE609AF0EEF8
:10154000419AF0EE618AB0EE42AA8BB0A17F02917F
:1015500000210391049108220592069107910891B8
:1015600009910A91217FDFF8DC910429B2EE040A87
:101570000AD0062908D00729B2EE091AF3EE0E0A9E
:101580000DD0082918D111E0DFED6F0AC9ED000A6E
:10159000DFED6E0AC9ED010A89ED020A0CE089ED62
:1015A000001AC9ED010A89ED020A05E089ED001A69
:1015B000C9ED010A89ED020A617F9FED658AC1B319
:1015C000DFED64AA012902D0022931D164E099ED4E
:1015D000001A1020B0EE620AF1EE410A09F04AFE4C
:1015E000054699ED011A0C20B0EE490AF1EE410AC8
:1015F00009F040FE06460C20B0EE481AF0EE480A0C
:10160000B0EE4A0A09F036FE07460C20B0EE6A1A20
:10161000F0EE480AB0EE690A09F02CFE80460C2074
:10162000B1EE041AF0EE480AB0EE680A09F022FEA4
:1016300063E0FFE71020B0EE481AF0EE480AB0EE83
:10164000480A09F017FE054699ED011A0C20B0EE84
:10165000490AF1EE410A09F00DFE06460C20B0EEF3
:10166000481AF0EE480AB0EE480A09F003FE0746B1
:101670000C20B0EE481AF0EE480AB0EE480A09F025
:10168000F9FD80460C20B1EE041AF0EE480AB0EEE7
:10169000680A09F0EFFD30E099ED001A1020B0EE75
:1016A000620AF1EE410A09F0E5FD054699ED011ADD
:1016B0000C20B0EE490AF1EE410A09F0DBFD0646C6
:1016C00099ED021A0C20B0EE4A0AF1EE410A09F037
:1016D000D1FD07460C20B0EE6A1AF0EE480AB0EED3
:1016E000690A09F0C7FD80460C20B1EE041AF0EE3D
:1016F000480AB0EE680A09F0BDFD290A8DF800100D
:101700008DF8015031098DF80210310141EA18219C
:101710008DF803108DF8048001098DF80510000183
:1017200040EA17208DF806008DF8077002A904F131
:1017300020006A4601F0FCFB0BB0BDEC068BBDE857
:10174000F0830000AC000024341149410000344211
:10175000000000000000FA4301B52DED020B8CB033
:10176000817F03910021049105910822069207913F
:10177000089109910A910B919DF830108DF8041091
:101780009DF831108DF805109DF832108DF8061077
:101790009DF833108DF807109DF834108DF808105F
:1017A0009DF835108DF809109DF836108DF80A1047
:1017B0009DF837108DF80B10203001AA03A901F015
:1017C000B7FB0FB000BD704772B6FEE70548016871
:1017D00041F0020101600348083801688904FCD522
:1017E000704700000C480258014801F013BD00008A
:1017F00098020024014801F00DBD000038030024C8
:10180000014801F007BD0000D803002430B5426B49
:10181000036853F8844F4FF6FC718C4344EA82040A
:101820001C60036853F8844F058F24F47F0444EA56
:1018300005441C60836B1A44036853F8884F8C433B
:1018400044EA82041C60036853F8884F858F24F4AF
:10185000FE0444EA05441C60C36B02EB43020368C8
:1018600053F8A04F8C4344EA82041C60036853F889
:10187000A04FB0F8405024F4FE0444EA05441C6034
:10188000D0E9103403FB0422036853F8B04F8C43B3
:1018900044EA82041C60036853F8B04FB0F8485023
:1018A00024F4FE0444EA05441C60D0E9123403FB2E
:1018B0000422036853F8AC4F8C4344EA82041C6052
:1018C000D0E9143403FB0422036853F8F04F8C432F
:1018D00044EA82041C60036853F8F04FB0F8585093
:1018E00024F47C1444EA05441C60836D02EB43033A
:1018F000026852F8C04F8C4344EA830111600168CA
:1019000051F8C02FB0F85C3022F47C1242EA034256
:101910000A60016851F8C02F90F8603022F07C52C4
:1019200042EA03620A60416B224A02EB8101C1660E
:10193000826B01EB82020267C36B02EBC302426758
:10194000D0E91034634302EB83028267D0E912349A
:10195000634302EB8302C267D0E91434634302EBB2
:101960008302C0F88020836D02EBC302C0F884209C
:10197000C46D836E5C4302EB8402C0F88820046E61
:101980005C4302EB8402C0F890200B4B9A4208D9CA
:101990009830416841F0200141600321017001202D
:1019A00030BD002200E004C1D0F890308B42FAD85C
:1019B000002030BD00AC0040FCD30040F0B5D1E9C0
:1019C00001650C692C430D68002E1AD045F0804546
:1019D0002C4391F82070D1E9066535434E6946EAFB
:1019E000076635438E8945EA0645D0F88460806EE7
:1019F000584306EB80031C605D60083300200B4EEB
:101A00000FE044EA8544E4E71418155CE77845EAFA
:101A10000765A77864783F0447EA0424254320C378
:101A2000001DCC68345D8442EED8F0BD14CF0008B0
:101A300010B50B480168001D0468001D00680844CB
:101A400000280BD00749082205F0B8FC05490422FC
:101A50002046BDE81040103105F0B0BC10BD0000BC
:101A600000E8F11FDA0100242DE9FF5F044600259C
:101A7000A068802811D094F83400012812D00121E8
:101A800084F8341094F8350001280DD0C802606540
:101A90000125284604B0BDE8F09F4FF480706065D2
:101AA0000125F6E70220F5E7022084F83500002042
:101AB0006065814E804F804A1836DFF8FC813037F0
:101AC000DFF8F491DFF8F0A108F14808DFF8E8B199
:101AD00009F1600920680AF1780A0BF1900B904235
:101AE0002ED0B0422CD0B8422AD0404528D048450C
:101AF00026D0504524D0584522D06F4AA832904273
:101B00001ED06E4A90421BD06C4A1832904217D0B9
:101B10006A4A3032904213D0684A483290420FD01D
:101B2000664A603290420BD0644A7832904207D0C5
:101B3000624A9032904203D0604AA83290420ED15D
:101B4000016841F48021016020680361A06D94F870
:101B50005C1001F01F023F21914081600EE002689D
:101B600048F2200C42EA0C02026020680361A06D7A
:101B700094F85C2002F01F02914041604E492068B9
:101B800088424DD0B0424BD0B84249D0404547D0B2
:101B9000484545D0504543D0584541D04649A831E5
:101BA00088423DD0454988423AD04449183188425C
:101BB00036D042493031884232D04049483188429B
:101BC0002ED03E49603188422AD03C497831884243
:101BD00026D03A499031884222D03849A8318842EB
:101BE0001ED0374988421BD035491431884217D05E
:101BF00033492831884213D031493C3188420FD0D3
:101C00002F49503188420BD02D496431884207D08A
:101C10002B497831884203D029498C3188420DD133
:101C20000E9B2046DDE90112FFF710FBD4E91910E5
:101C30004860E06E10B1D4E91C1048601E4920686D
:101C400088422ED0B0422CD0B8422AD0404528D06D
:101C5000484526D0504524D0584522D01649A831B1
:101C600088421ED0154988421BD014491831884239
:101C700017D012493031884213D010494831884278
:101C80000FD00E49603188420BD00C497831884220
:101C900007D00A499031884203D00849A8318842C8
:101CA00004D1016841F001010160F2E6016841F0F0
:101CB00001010160EDE60000100002401004024046
:101CC000085402582DE9F84F044601F0D5FF009062
:101CD0005CB194F83500022809D0802060650020AE
:101CE00084F834000120BDE8F88F0120FBE7D14ED5
:101CF000D04FD0491836DFF83C833037DFF83493C3
:101D0000DFF830A308F14808DFF828B309F16009CB
:101D100020680AF1780A0BF1900B88422ED0B0426D
:101D20002CD0B8422AD0404528D0484526D050452E
:101D300024D0584522D0BF4AA83290421ED0BE4A75
:101D400090421BD0BC4A1832904217D0BA4A303267
:101D5000904213D0B84A483290420FD0B64A60320F
:101D600090420BD0B44A7832904207D0B24A9032B7
:101D7000904203D0B04AA83290420AD1026822F0C1
:101D80001E0202602068426922F0800242612568DA
:101D900004E0026822F00E02026025682068884292
:101DA0004DD0B0424BD0B84249D0404547D04845CD
:101DB00045D0504543D0584541D09E4AA832904224
:101DC0003DD09D4A90423AD09B4A1832904236D03C
:101DD000994A3032904232D0974A483290422ED0BF
:101DE000954A603290422AD0934A7832904226D067
:101DF000914A9032904222D08F4AA83290421ED00F
:101E00008E4A90421BD08D4A1432904217D08B4A92
:101E10002832904213D0894A3C3290420FD0874AF0
:101E2000503290420BD0854A6432904207D0834AA8
:101E30007832904203D0814A8C32904204D1206E95
:101E4000026822F4807202607A49206888422ED0AB
:101E5000B0422CD0B8422AD0404528D0484526D0A0
:101E6000504524D0584522D07249A83188421ED00E
:101E7000714988421BD070491831884217D06E4989
:101E80003031884213D06C49483188420FD06A49BA
:101E9000603188420BD068497831884207D0664962
:101EA0009031884203D06449A831884204D1016846
:101EB00021F00101016013E0016821F001010160DE
:101EC0000EE001F0D9FE0099401A052808D920201B
:101ED000343420620320607000202070012002E76B
:101EE0002868C007EDD1534A0121206890422ED0C6
:101EF000B0422CD0B8422AD0404528D0484526D000
:101F0000504524D0584522D04A4BA83398421ED081
:101F1000494B98421BD0484B1833984217D0464B38
:101F20003033984213D0444B483398420FD0424B41
:101F3000603398420BD0404B7833984207D03E4BE9
:101F40009033984203D03C4BA833984208D1A06DFF
:101F500094F85C3003F01F053F23AB40836007E03B
:101F6000A06D94F85C3003F01F0301FA03F34360A3
:101F7000206890424DD0B0424BD0B84249D0404545
:101F800047D0484545D0504543D0584541D0294ACF
:101F9000A83290423DD0284A90423AD0264A183280
:101FA000904236D0244A3032904232D0224A4832CF
:101FB00090422ED0204A603290422AD01E4A783277
:101FC000904226D01C4A9032904222D01A4AA8321F
:101FD00090421ED0194A90421BD0184A14329042A7
:101FE00017D0164A2832904213D0144A3C329042FD
:101FF0000FD0124A503290420BD0104A64329042B5
:1020000007D00E4A7832904203D00C4A8C3290426C
:102010000BD1D4E919205060E06E30B1026822F48F
:1020200080720260D4E91C2050603434617000205A
:10203000207058E610000240100402400854025874
:102040002DE9F05F002808D090F83510022906D05D
:10205000802141650120BDE8F09F0120FBE7A14AF6
:10206000A04BA04C18329F4D30339E4E4834DFF8C1
:1020700074B26035DFF870C27836DFF86C82DFF852
:1020800068920CF1300CDFF860A208F1600801687A
:1020900009F17809944F0AF1900A594531D09142DB
:1020A0002FD099422DD0A1422BD0A94229D0B142A4
:1020B00027D0DFF830E20EF1900E714521D0DFF825
:1020C00024E20EF1A80E71451BD0DFF81CE2AEF140
:1020D000180E714515D0B94213D0DFF80CE20EF19D
:1020E000180E71450DD061450BD0DFF8FCE10EF103
:1020F000480E714505D0414503D0494501D05145B1
:1021000037D14FF0040E80F835E0594527D0914281
:1021100025D0994223D0A14221D0A9421FD0B1425B
:102120001DD070489030814219D06E48A83081424D
:1021300015D06D481838814211D0B9420FD06A4885
:10214000183081420BD0614509D067484830814240
:1021500005D0414503D0494501D0514504D1086817
:1021600020F001000860BAE0086820F00100086073
:10217000B5E0D1F800E02EF00E0EC1F800E00168E5
:10218000DE46594531D091422FD099422DD0A142FF
:102190002BD0A94229D0B14227D0DFF848B10BF1AA
:1021A000900B594521D0DFF83CB10BF1A80B5945F4
:1021B0001BD0DFF834B1ABF1180B594515D0B9423B
:1021C00013D0DFF824B10BF1180B59450DD0614540
:1021D0000BD0DFF814B10BF1480B594505D0414540
:1021E00003D0494501D0514506D1D1F800B02BF0BC
:1021F000010BC1F800B005E0D1F800B02BF0010BE5
:10220000C1F800B001684FF0010B714546D0914212
:1022100044D0994242D0A14240D0A9423ED0B142DE
:102220003CD0304A9032914238D02E4AA832914266
:1022300034D02D4A183A914230D0B9422ED02A4A91
:10224000183291422AD0614528D0274A483291421B
:1022500024D0414522D0494520D051451ED0234AA3
:1022600091421BD0214A1432914217D01F4A283282
:10227000914213D01D4A3C3291420FD01B4A50323A
:1022800091420BD0194A6432914207D0174A7832F2
:10229000914203D0154A8C32914218D1016E0A68DE
:1022A00022F480720A60816D90F85C2002F01F02B7
:1022B0000BFA02F24A60D0E919215160C16E31B1C6
:1022C0000A6822F480720A60D0E91C21516080F80B
:1022D00035B0002180F83410016D01B1884700202D
:1022E000B9E60000100002402804024008540258D9
:1022F0002DE9FF5F0446002001904FF41651FD4880
:102300000068B0FBF1F00090A56D2E682968FA4FC7
:10231000DFF8E4B3DFF8E083DFF8DC930BF1180BB0
:10232000DFF8D4A308F13008206809F148090AF160
:10233000600AB8423BD05A46904238D0404536D029
:10234000484534D0504532D0EB4A783290422ED0B6
:10235000E94A903290422AD0E74AA832904226D0E9
:10236000E64A904223D0E54A183290421FD0E34B10
:10237000303398421BD0E14B4833984217D0DFF8F6
:102380007CC30CF1600C604511D0DFF870C30CF118
:10239000780C60450BD0DFF864C30CF1900C6045FD
:1023A00005D0DFF858E30EF1A80E70457ED194F801
:1023B0005C10082301F01F0103FA01F232424BD0F6
:1023C000B84232D0584530D040452ED048452CD068
:1023D00050452AD0C8497831884226D0C649903124
:1023E000884222D0C449A83188421ED0C3498842BD
:1023F0001BD0C2491831884217D0C04930318842B9
:1024000013D0BE49483188420FD0BC496031884260
:102410000BD0BA497831884207D0B8499031884208
:1024200003D0B649A831884203D1016801F0040104
:1024300002E0016801F0080171B1016821F00401B6
:10244000016094F85C0000F01F0003FA00F2AA603B
:10245000606D40F00100606594F85C00012100F0BF
:102460001F008140314240D02068B84234D05845E6
:1024700032D0404530D048452ED050452CD09E4AD1
:102480007832904228D09C4A9032904224D09A4A86
:10249000A832904220D0994A90421DD0974A1832D3
:1024A000904219D0954A3032904200E0D2E113D0E8
:1024B000924A483290420FD0904A603290420BD0FC
:1024C0008E4A7832904207D08C4A9032904203D0A4
:1024D0008A4AA83290427DD1406910F0800F04D022
:1024E000A960606D40F00200606594F85C00042112
:1024F00000F01F00814031423ED02068B84232D007
:10250000584530D040452ED048452CD050452AD093
:10251000794A7832904226D0774A9032904222D03F
:10252000754AA83290421ED0744A90421BD0734A1A
:102530001832904217D0714A3032904213D06F4A0D
:10254000483290420FD06D4A603290420BD06B4AB5
:102550007832904207D0694A9032904203D0674A5D
:10256000A83290424ED1006810F0020F04D0A9604A
:10257000606D40F00400606594F85C00102100F08C
:102580001F008140314260D02068B84234D05845A5
:1025900032D0404530D048452ED050452CD0564AF8
:1025A0007832904228D0544A9032904224D0524AF5
:1025B000A832904220D0514A90421DD04F4A183242
:1025C000904219D04D4A3032904215D04B4A483291
:1025D000904200E014E00FD0484A603290420BD0A5
:1025E000464A7832904207D0444A9032904203D013
:1025F000424AA832904207D1006800F0080006E085
:10260000006872E70068B7E7006800F0040058B19E
:10261000A9602068016849030CD50068000304D450
:10262000216C09B1204688470FE0A16C69B12046B2
:1026300088470AE00168C90503D4016821F0080150
:102640000160216C09B12046884794F85C00202184
:1026500000F01F00814031427BD02068B84232D068
:10266000584530D040452ED048452CD050452AD032
:10267000214A7832904226D01F4A9032904222D08E
:102680001D4AA83290421ED01C4A90421BD01B4AC1
:102690001832904217D0194A3032904213D0174A5C
:1026A000483290420FD0154A603290420BD0134A04
:1026B0007832904207D0114A9032904203D00F4AAC
:1026C000A832904203D1006800F0100002E00068D8
:1026D00000F00200E8B3A96094F83500042812D095
:1026E0002068016849033DD50068000335D4616C5A
:1026F00079B305E01C0000241000024010040240E1
:10270000204688473FE02068016821F016010160FB
:102710002068416921F080014161206C08B9A06CFA
:1027200020B12068016821F00801016094F85C0084
:1027300000F01F013F208840A860012084F8350088
:10274000002084F83400216D002974D004B02046A4
:1027500000E018E0BDE8F05F0847E16B99B1204662
:10276000884710E00168C90509D4016821F010010B
:102770000160012084F83500002084F83400E16B0A
:1027800009B120468847606D002854D0606DC007AD
:1027900058D0042084F835002068B84231D058451C
:1027A0002FD040452DD048452BD0504529D0B74992
:1027B000884226D0B5491831884222D0B3493031F9
:1027C00088421ED0B24988421BD0B1491831884294
:1027D00017D0AF493031884213D0AD4948318842D3
:1027E0000FD0AB49603188420BD0A949783188427B
:1027F00007D0A7499031884203D0A549A831884223
:1028000004D1016821F00101016003E0016821F0B9
:102810000101016021680198009A401C01909042DA
:1028200002D80868C007F6D10868C00704D00320A2
:1028300084F8350003E087E0012084F835000020AB
:1028400084F83400E16C00297ED004B02046BDE855
:10285000F05F08478F4EB0421BD08E4E1436B04208
:1028600017D08C4E2836B04213D08A4E3C36B04238
:102870000FD0884E5036B0420BD0864E6436B042F0
:1028800007D0844E7836B04203D0824E8C36B042A8
:102890005AD106684FF0040E94F85CB00BF01F0B91
:1028A0000EFA0BFE1EEA010FCDF80CE05ED05FEAD7
:1028B000467E5BD503986860300411D5F00307D4D9
:1028C000A16C002940D004B02046BDE8F05F084765
:1028D000216C002938D004B02046BDE8F05F0847DD
:1028E000B0063BD42068B8422DD068496039884290
:1028F00029D0404527D0484525D0504523D06349AD
:10290000884220D06149183188421CD05F4930315B
:10291000884218D05E49884215D0904213D05C4955
:10292000303188420FD098420DD0594960318842E9
:1029300009D057497831884205D0604503D05449C1
:10294000A831884206D100E07CE0016821F008014E
:10295000016003E0016821F004010160216C00299D
:1029600070D004B02046BDE8F05F08474FF0020E7B
:102970000EFA0BFE1EEA010FCDF808E063D05FEA05
:10298000867E60D502986860300411D5F00307D4C4
:10299000616C002978D004B02046BDE8F05F08479C
:1029A000E16B002970D004B02046BDE8F05F084715
:1029B000B0063FD42068B8422DD0344960398842EF
:1029C00029D0404527D0484525D0504523D02F4910
:1029D000884220D02D49183188421CD02B493031F3
:1029E000884218D02A49884215D0904213D02849ED
:1029F000303188420FD098420DD02549603188424D
:102A000009D023497831884205D0604503D0204958
:102A1000A831884204D1016821F01401016003E06B
:102A2000016821F00A010160012084F835000020CE
:102A300084F83400E16B002926D004B02046BDE8BC
:102A4000F05F084720E0082202FA0BF20A421BD08E
:102A5000310719D5016821F00E01016094F85C007E
:102A600000F01F01012000FA01F16960606584F83F
:102A70003500002084F83400E16C002904D004B053
:102A80002046BDE8F05F0847BDE8FF9F8800024090
:102A900010040240085402582DE9F05F044601F08A
:102AA000EBF80646002C7DD0F24F0222DFF8C483FB
:102AB0000025DFF8C093DFF8BCA308F13008DFF889
:102AC000B4B309F1480920680AF1600A0BF1780BE8
:102AD000B84232D0E749183188422ED040452CD038
:102AE00048452AD0504528D0584526D0E149903154
:102AF000884222D0DF49A83188421ED0DE49884270
:102B00001BD0DD491831884217D0DB49303188426B
:102B100013D0D949483188420FD0D7496031884213
:102B20000BD0D5497831884207D0D34990318842BB
:102B300003D0D149A83188427ED184F8352084F869
:102B40003450B84234D0CB491831884230D0404557
:102B50002ED048452CD050452AD0584528D0C549BC
:102B60009031884224D0C349A831884220D0C2493C
:102B700088421DD0C0491831884219D0BE49303131
:102B8000884215D0BC494831884211D0BA496031D9
:102B900088420DD0B8497831884209D0B649903181
:102BA000884200E009E003D0B349A831884207D148
:102BB000016821F00101016013E00120BDE8F09FF0
:102BC000016821F0010101600BE001F055F8801B64
:102BD000052806D920206065032084F835000120EF
:102BE000ECE720680068C007EFD122681168A348AD
:102BF0000140D4E902031843D4E9043633431843AF
:102C0000A3691843E3691843236A18430843616AB8
:102C1000042903D1D4E90B13194308436168A1F1D6
:102C20002903052B0DD9163B032B0AD9083B012B91
:102C300007D9083B032B00E02AE002D974390329A5
:102C400001D840F4801010602068406920F007012E
:102C5000606A40EA010604280DD1A06A0643E06AD2
:102C600048B12046FEF7B6FA28B140206065012041
:102C700084F83500A2E7206846612046FEF7BCF9DB
:102C800094F85C1001F01F023F219140816066E0E2
:102C90007B4988421BD07A4B1433984217D0784B2B
:102CA0002833984213D0764B3C3398420FD0744B64
:102CB000503398420BD0724B6433984207D0704B1C
:102CC0007833984203D06E4B8C3398427ED1884241
:102CD00011D06B49143188420DD06949283188429E
:102CE00009D067493C31884205D065495031884256
:102CF00001D06349643184F8352084F83450026887
:102D000060490A40A16840297ED080297DD00021F9
:102D1000E36841EAD301236941EAD301636941EAE7
:102D2000D301A36941EAD301E36941EAD301236AEC
:102D300041EA131111430160514920684942084496
:102D40001421B0FBF1F08000E0652046FEF754F955
:102D500094F85C1001F01F0201219140416020684D
:102D6000B84256D043491831884252D0404550D0DD
:102D700048454ED050454CD058454AD03D499031F9
:102D8000884246D03B49A831884242D03A498842DD
:102D90003FD03949183188423BD0374930318842D9
:102DA00037D035494831884233D033496031884281
:102DB0002FD03149783188422BD02F499031884229
:102DC00027D02D49A831884223D000E02DE02C499E
:102DD00088421ED02A49143188421AD02849283105
:102DE000884216D026493C31884212D024495031BD
:102DF00088420ED02249643188420AD02049783175
:102E0000884206D01E4901E00AE00BE08C3188427E
:102E100029D12046FEF750F9A06880280CD00CE09C
:102E2000102175E74FF4804172E740206065032070
:102E300084F835000120C1E66560216E20790860C4
:102E4000D4E9191048606068401E072808D8204659
:102E5000FEF782F9E06E0560D4E91C10486002E0DC
:102E6000E566256765676565012084F83500002003
:102E7000A4E6000010000240100402403F8010FE53
:102E8000085402580F00FEFF70B5044600F0F4FE2F
:102E90000546601C02D004480078044400F0ECFEB3
:102EA000401BA042FAD370BD1000002410B590F86A
:102EB0009830012B08D0022B06D050F89C1F41F00F
:102EC00002010160012010BD03689C6D0C4204D119
:102ED000DC6D44F00104DC6505E09C6D31EA04041E
:102EE0001CD00324DC658B0504D5036853F8E04F40
:102EF00014431C604B0504D5036853F8E44F144396
:102F00001C600068426D084B0B401A43426507483D
:102F1000026842EA91710160002010BDDC6D44F04E
:102F20000204DC65DFE70000FFFFCF3F14A800408C
:102F300070B5044694F89800022806D054F89C0F07
:102F400040F008002060012070BD2068D0F8C0303B
:102F500013F07C5F0AD0D0F8C4309B020DD554F832
:102F60009C0F40F400702060012070BD54F89C0F4D
:102F700040F020002060012070BDD0F8C400C0F3F4
:102F8000044520462B46FEF719FD21680120A84084
:102F9000C1F8D000C4F89400002070BD704710B58F
:102FA00090F89820012A08D0022A06D050F89C1FD9
:102FB00041F002010160012010BDCA680B688BB1AD
:102FC000072A0B6943EA42732BD00C7A4A6942EA1A
:102FD00084724968006F00EBC100036042604FF0EB
:102FE000000010BD072A10D00C7A4FEAC2624B696C
:102FF00043EA84730C8A42EA044243EA02034968C2
:10300000C06E00EB81000360E9E70B8A4FF060546B
:103010008A6942EA0343CA6944EA022243EA020394
:10302000EDE78A69D5E730B5039C90F89850012DFB
:1030300006D050F89C1F41F004010160012030BD12
:103040000068090141EA820141EA43012143C0F8D5
:103050008010002030BD704770470000F0B500249C
:1030600090F89850022D06D050F89C1F41F00801AE
:1030700001600120F0BD40290BD0412936D0056DFB
:103080008D4260D850F89C1F41F020010160012062
:10309000F0BD0568D5F8A06016F4FE0F18D0D5F87D
:1030A000A46076061BD0D5F8A460F60105D5D5F846
:1030B000A06016F0004F00D50124D5F8A450C5F348
:1030C00005252C44456C466F654306EB85063FE0BD
:1030D00050F89C1F41F0200101600120F0BD50F824
:1030E0009C1F41F4807101600120F0BD0568D5F896
:1030F000B06016F4FE0F18D0D5F8B46076061BD079
:10310000D5F8B460F60105D5D5F8B06016F0004FDB
:1031100000D50124D5F8B450C5F305252C44C56C61
:10312000866F654306EB850612E050F89C1F41F060
:10313000200101600120F0BD50F89C1F41F4807116
:1031400001600120F0BD456DC66F4D4306EB85065D
:10315000356805F0804555602DB3356825F060452C
:103160001560356805F000559560356805F0004537
:103170001561B588ADB2D5617568C5F30345D560F5
:10318000756805F480155561756805F4001595613D
:103190007568C5F30665156275680836ED0F5562EA
:1031A0000025174F09E03568C5F38A451560D8E753
:1031B00016F805C003F805C06D1CD2F80CC017F84E
:1031C0000CC0AC45F4D8402909D041290BD00122CC
:1031D00020290CD200688A40C0F898200DE00068D1
:1031E000C0F8A84009E00068C0F8B84005E00068F1
:1031F00001F01F018A40C0F89C200020F0BD0000B3
:1032000014CF00080068D0F8C40000F03F007047F9
:10321000704700002DE9FE4F0446B64F386880071E
:10322000391D096800EA817002902068016D01F47F
:103230007041D0F854A00AEA010A016D01F00F01B3
:10324000D0F854B00BEA010B016D01F0F001426DB2
:103250000A400192016D01F07151D0F8548008EAE2
:103260000108016D01F06071426D0A400092416DEC
:10327000056D4FF00009CE43F10509D4E943C905B6
:1032800006D4B9150165C7F800902046FFF7C0FFC6
:10329000700510D4E84340050DD42068D0F8DC2038
:1032A000D0F8E41011404FF480620265C7F8009036
:1032B000204600F0CAFB029858B18F490298084096
:1032C000216808650298800F386002992046FFF750
:1032D00065FEBAF1000F0BD0216887480AEA0000AA
:1032E00008654FEA9A7038605146204600F0AFFBFF
:1032F000BBF1000F0BD021687F480BEA0000086586
:103300004FEA9B7038605946204600F005FB019853
:1033100058B1794901980840216808650198800FE3
:1033200038600199204600F071FB30050BD4E8436A
:10333000000508D421684FF400600865C7F80090C4
:10334000204600F085FBB00510D4E84380050DD47D
:103350002068D0F8D820D0F8E01011404FF4007267
:103360000265C7F80090204600F070FB30030BD4D4
:10337000E843000308D421684FF400200865C7F82B
:103380000090204600F0C6FAF0030BD4E843C003D7
:1033900008D421684FF480300865C7F800902046B3
:1033A00000F052FB70030BD4E843400308D42168BB
:1033B0004FF480200865C7F80090204600F043FBDA
:1033C000B0030ED4E84380030BD421684FF40030DF
:1033D0000865C7F80090D4F89C0040F08000C4F85D
:1033E0009C00009858B1444900980840216808653D
:1033F0000098800F386000992046FFF72DFEB8F145
:10340000000F0DD021683C4808EA000008654FEA2B
:1034100098703860D4F89C0040EA0800C4F89C001A
:103420003649206888425BD160688168890757D037
:10343000016A01F00F02416A1140026A02F0300293
:10344000476A1740026A02F4C072D0F8248008EA82
:103450000208026A02F4FC42456A1540026A02F45C
:10346000F022466A1640D0F82490D0F820A019B176
:103470000162204600F0E4FA2FB160680762394625
:10348000204600F0DFFA6FEA090040060ED46FEA2A
:103490000A0040060AD46068C16B090CC26B02F0D6
:1034A0003F0240230362204600F0CBFAB8F1000F40
:1034B00006D06068C0F820804146204600F0BFFA80
:1034C00035B160680562D4F89C002843C4F89C00BC
:1034D00036B160680662D4F89C003043C4F89C00A2
:1034E000D4F89C00002802D02046FFF7B4FDBDE8C8
:1034F000FE8F000010A80040FFFFCF3F00A000405B
:103500002DE9F04393B004464C2295496846FDF7F7
:103510008DF86CB1934F2068B84202D100F58070ED
:1035200060604FF4407994F89800002620B108E0DC
:10353000012013B0BDE8F08384F89960204600F0C4
:1035400013F92068816921F01001816100F094FB7A
:1035500005464FF003080DE000F08EFB401B0A28E3
:1035600008D954F89C0F40F00100206004F8048C46
:103570000120DEE7206880690007EDD420688169BA
:1035800041F00101816100F077FB05460DE000F09C
:1035900073FB401B0A2808D954F89C0F40F0010027
:1035A000206004F8048C0120C3E720688069C0070C
:1035B000EDD02068816941F002018161207C012801
:1035C00039D02068816941F040018161607C012827
:1035D00037D02068816921F480418161A07C012875
:1035E00035D02068816941F480518161206881690A
:1035F000A26821F44071114381612068816921F042
:10360000A40181612068016921F010010161E06875
:10361000012822D030B302282BD02068816941F0E4
:10362000800181612068016941F010010161E06859
:10363000032818D022E02068816921F040018161CF
:10364000C4E72068816941F480418161C6E7206850
:10365000816921F480518161C8E72068816941F066
:10366000040181610AE02068816941F020018161E3
:1036700004E02068816941F020018161207E401EC4
:103680004106E069401E41EA0020216A491E0843C4
:10369000A18A491E40EA01402168C861A0684845E6
:1036A0000FD1E16AA06A491E401E40EA0121206B49
:1036B000401E41EA0011A08C401E41EA00402168F2
:1036C000C860206E28B1206850F8C01F626E114398
:1036D0000160D4E91701C842694609D0206850F852
:1036E000C82FA36E22F0070251F823301A4302605C
:1036F000206C48B1206850F8BC2F636C22F00702A0
:1037000051F823301A430260A06C50B1206850F881
:10371000BC2FE36C22F0700251F8233042EA03120E
:103720000260206D50B1206850F8BC2F636D22F408
:10373000E06251F8231042EA012101602068B8429A
:1037400004D16068816821F00301816044F8946FBE
:10375000A66001202071943C2046FEF757F8E8E669
:1037600024CF000800A000402DE9F047B6B0044681
:10377000142130A8FCF794FFB82102A8FCF790FFB1
:103780005F4D00265C4A4FF0805021680C3D5B4F36
:103790004FF002085A4C9142DFF868A14FF0090936
:1037A00036D142130021CDE902211D9002A801F07B
:1037B00095FA08B1FEF708F83868401C386001280F
:1037C00007D1206840F480702060206800F4807089
:1037D0000190286840F008002860286800F0080080
:1037E000019003203090CDF8C48032963396CDF806
:1037F000D09030A9504600F02DF900220521132069
:1038000000F024FB132000F013FB36B0BDE8F08776
:103810003D4A914235D100214FF40042CDE90221C9
:103820001D9002A801F05AFA08B1FDF7CDFF3868E3
:10383000401C3860012807D1206840F48070206067
:10384000206800F480700190286840F00200286031
:10385000286800F00200019060203090CDF8C4800C
:1038600032963396CDF8D09030A9284800F0F2F87F
:1038700000220521142000F0E9FA142000F0D8FA03
:10388000C3E7234A9142C0D100214FF40042CDE961
:1038900002211D9002A801F021FA08B1FDF794FF62
:1038A0003868401C3860012807D1206840F48070D7
:1038B0002060206800F480700190286840F00800C3
:1038C0002860286800F0080001904FF440503090C4
:1038D000CDF8C480329633960520349030A95046F6
:1038E00000F0B8F8002205219F2000F0AFFA9F20D9
:1038F00000F09EFA89E7000000A000400C000024C0
:10390000EC440258000C025800A400400004025885
:1039100000D400407047000010B58CB00446402130
:103920006B4602AA2046FFF799FB2C492068884283
:1039300031D10298A0F50070013806D0012809D0D5
:1039400002280CD0032813D10EE025486946FDF764
:103950008EFA0DE023486946FDF789FA08E022480F
:103960006946FDF784FA03E020486946FDF77FFACF
:103970009DF8000000F00F00052807D0062803D1AD
:103980001B486946FDF704FD0CB010BD1948694697
:10399000FDF7FEFCF8E718498842F5D10298A0F53A
:1039A000007001380AD001280DD0022810D0032859
:1039B000EAD112486946FDF75AFAE5E71048694628
:1039C000FDF755FAE0E70F486946FDF750FADBE7E7
:1039D0000D486946FDF74BFAD6E7000000A000400D
:1039E000C05000245C520024F85300249455002455
:1039F000C05B0024B85A002400A40040645E002488
:103A000030570024CC580024C85C0024704790F83C
:103A10009810012906D050F89C1F41F00401016064
:103A200001207047022180F8981001688A6922F00D
:103A300001028A610021C0F89C1000207047704785
:103A400070477047704770477047704770477047BE
:103A5000704700002DE9F84F0022784D03264FF003
:103A600001080F274FF0B04CE1E008FA02F31C40C8
:103A70009A46002C7ED00B7903F00303012B01D072
:103A8000022B1BD1D0F80890530006FA03FB29EA59
:103A90000B09D1F80CB00BFA03FB4BEA090BC0F889
:103AA00008B0436823EA0A0391F80490C9F30019A7
:103AB00009FA02F949EA0309C0F804900B79DB43DB
:103AC0009B070ED0D0F80C90530006FA03FA29EAAF
:103AD0000A09D1F808A00AFA03FA4AEA090AC0F862
:103AE0000CA00B7903F00303022B14D1D30800EBD5
:103AF0008303D3F820A04FEA42794FEAD96907FA45
:103B000009FB2AEA0B0AD1F810B00BFA09FB4BEAC1
:103B10000A0BC3F820B0D0F80090530006FA03FA5D
:103B200029EA0A0991F804A00AF0030A0AFA03FA3A
:103B30004AEA090AC0F800A04B6813F4403F75D068
:103B40003F4BD3F8009049F00209C3F800901B687E
:103B500003F00203009322F0030909F1B049D9F8F8
:103B600008B493074FEA137A07FA0AF32BEA030B18
:103B7000344B00E05AE0984201D1002328E0324B58
:103B8000984201D1012323E0304B984201D1022316
:103B90001EE02F4B984201D1032319E02D4B984290
:103BA00001D1042314E02C4B984201D105230FE0EE
:103BB0002A4B984201D106230AE0294B984201D1B1
:103BC000072305E0274B984201D1092300E00A238F
:103BD00003FA0AF343EA0B03C9F80834DCF80030AF
:103BE000A343D1F804905FEAC92900D52343CCF858
:103BF0000030DCF80430A343D1F804905FEA89294F
:103C000000D52343CCF804306B68A343D1F804906B
:103C10005FEA893900D523436B602B68A343D1F851
:103C200004905FEAC93900D523432B60521C0C680D
:103C300034FA02F37FF419AFBDE8F88F8000005822
:103C4000F4440258000002580004025800080258C8
:103C5000000C0258001002580014025800180258B4
:103C6000001C025800240258002A01D081617047CC
:103C700009048161704700000148806870470000B6
:103C80001000002402488168027811448160704766
:103C90001000002410B5032000F0F8F801F09AFE9F
:103CA0000F490A68C2F303230E4AD35C03F01F03D3
:103CB000D840096801F00F01515C0B4A01F01F0167
:103CC00020FA01F11160094908600F2000F010F896
:103CD00008B1012010BD00F099F8002010BD0000CF
:103CE0001844025898CF0008200000241C0000242B
:103CF00010B58AB00446102C2DD2002221462C206B
:103D000000F0A4F82C2000F093F816480460164840
:103D1000016841F002010160006800F002000090BB
:103D200001A902A801F0E0FD01F042FE40000F49A8
:103D3000B0FBF1F1491E0F480D4A026040F2E73234
:103D4000C260416000210161816002F067FA20B128
:103D500001200AB010BD0120FBE7064802F0F4FA8A
:103D6000F7E7000014000024F044025840420F001E
:103D70000004014028070024134A417811601249C9
:103D800008310A6822F001020A600B1F42681A60BB
:103D9000027BC37A120742EA0362837A42EAC34291
:103DA000437B42EA8342837B42EA4342C37B42EA4B
:103DB0000342437A42EA0322037A007842EA43024A
:103DC00002430A607047000098ED00E0BFF35F8F88
:103DD0000448016821F480310160024900207031FB
:103DE0000860704724ED00E0074940F001000860DA
:103DF00005487038016841F480310160BFF34F8F8E
:103E0000BFF36F8F7047000094ED00E082B0074869
:103E1000016841F002010160006800F002000190B9
:103E200000220F21901E02B000F010B8F444025896
:103E3000002809DB012100F01F02914040098000A9
:103E400000F1E020C0F8001170470000F0B40D460A
:103E50000D4B1B68C3F30223C3F10704042C00D9E4
:103E60000424191D072901D2002300E0DB1E0126CE
:103E700006FA04F1491E294099409E40761E1640DC
:103E80003143F0BC07F024B80CED00E000F007016E
:103E9000054A10684FF6FF03184040EA0120034925
:103EA00008431060704700000CED00E00000FA05C8
:103EB00001680122C0F8D824002280F8CC24886947
:103EC00040F000608861486D024A10434865002058
:103ED0007047000003000010704700684162002036
:103EE000704770B50368586A002907D09C6A00EBD8
:103EF00014440020491E4FF482750AE040EA024053
:103F000098620DE005EB80069E5904EB1644401CB8
:103F1000C0B28842F6D305EB810144EA0240585012
:103F2000002070BDD0F8E00405F08DBE01EBC102A9
:103F300000EB8202D0F8E004126A05F0B1BD01EB9B
:103F4000C10200EB8202D0F8E004D2F8602205F052
:103F500015BED0F8E00405F078BE0A0601F00F01A6
:103F600001EBC10100EB810101D5143101E001F544
:103F70001571006806F0DCBD70B504464FF0010213
:103F800001F00F004FF000050B0600EBC00104EB41
:103F9000810102D514314A7002E001F515714D70AE
:103FA000087094F89404012808D084F894242068B8
:103FB00006F0D6FA84F89454002070BD022070BD3B
:103FC00070B5044601F00F002279904201D901201A
:103FD00070BD0B064FF0010201F00F014FF000051C
:103FE00001EBC10104EB810102D514314A7002E0FA
:103FF00001F515714D708D70087094F894040128C6
:1040000008D084F89424206806F010FC84F89454B6
:10401000002070BD022070BD01F00F0101EBC10155
:1040200000EB8100D0F8680270472DE9F0410446AA
:104030004FF0010601F00F004FF000050F0600EBF6
:10404000C00104EB810102D514314E7002E001F58C
:1040500015714D700870C2F30A028A600B714A78BC
:1040600002B14883022B00D14D7194F894040128C9
:1040700009D084F89464206806F0B2F9284684F8E0
:104080009454BDE8F0810220FBE710B501F00F0465
:1040900004EBC40100EB810101F51571CA600B61ED
:1040A00000234B614B700C708379012B00D1CA61E6
:1040B0008279006806F012FC002010BD70B504463D
:1040C0000D4605F00F002179884201D9012070BD0D
:1040D00029064FF000064FF0010206D500EBC001A3
:1040E00004EB810114314A7006E005EBC50104EBD5
:1040F000810101F515714E708A70087094F894046E
:10410000012807D084F89424206806F0BBFB280718
:1041100002D007E0022070BDA17904F29C42206821
:1041200006F05AFB84F89464002070BD10B501F0CD
:104130000F0404EBC40100EB81011431CA600B6170
:1041400000234B6101234B700C708379012B00D14C
:10415000CA618279006806F0C1FB002010BD2DE91C
:10416000F84F04462568284606F08CFD00287ED1CD
:10417000206806F0B3FD002879D0D5F80808C0F310
:104180000D20C4F8D404206806F0A8FD800704D5EB
:104190002068416901F002014161206806F09EFD3E
:1041A000C10604F29C40009035D52068816921F059
:1041B000100181612F6A07F00F0000EBC00004EBD3
:1041C000800606F51576C7F34340022802D006287C
:1041D00012D01BE047F6F070074217D0C7F30A125F
:1041E000F1681746284606F07DFDF0683844F06017
:1041F00070693844706109E000990822284606F089
:1042000071FD7069C7F30A11084470612068816903
:1042100041F010018161206806F060FD00034FF05D
:10422000080B4FF000094FF001085ED5002620680A
:1042300006F033FD824655E05FEACA704FD0206831
:10424000F1B206F043FD0746F80707D005EB46102C
:10425000C0F8088B3146204603F032FC380709D5F8
:1042600005EB4610C0F808BB3146204600E015E2D9
:1042700003F002FCF80604D505EB46111020C1F846
:10428000080BB8071CD56869000605D5D5F80408E1
:1042900040F48061C5F8041806EBC60004EB80000A
:1042A00000F51570C178012905D180F803902046EA
:1042B000F1B200F0F9F905EB46110220C1F8080B44
:1042C000B80604D505EB46102021C0F8081BB80439
:1042D00005D505EB46104FF40051C0F8081B761CBD
:1042E0004FEA5A0ABAF1000FA6D1206806F0F6FC90
:1042F00040036CD5206806F0C9FC8246002663E0C6
:104300005FEACA705DD02068F1B206F0CDFC0746C6
:10431000F80723D006F00F0108FA01F0D5F8341899
:104320008143C5F8341805EB4610C0F80889A07918
:1043300001280FD106EBC60004EB8000D0E907216D
:104340001144016236B9606A20B920680121009ADF
:1043500006F042FA2046F1B2FFF7E8FD380703D530
:1043600005EB4610C0F808B9F80604D505EB461170
:104370001020C1F80809780604D505EB4610402145
:10438000C0F80819B80716D53146284606F048FC8B
:1043900006EBC60004EB80001430C178012905D17A
:1043A00080F803902046F1B200F07AF905EB46114F
:1043B0000220C1F80809380603D53146204603F02B
:1043C000F1FB761C4FEA5A0ABAF1000F98D1206827
:1043D00006F084FC002811DAD5F8040820F0010169
:1043E000C5F8041894F8CC04012839D0204600F010
:1043F00014FA2068416901F000414161206806F02B
:104400006DFC00050BD5D5F80808C00702D0204682
:1044100000F046FA2068416901F4006141612068BA
:1044200006F05CFC00010AD52068416901F00061DA
:10443000416194F8CC04D0B1204600F031FA2068F4
:1044400006F04CFCC0046ED5D5F8040820F001013C
:10445000C5F804182068102106F0E2FB00212DE0C9
:1044600084F8CC9400212046FFF736FDC1E784F89C
:10447000CC842068406DC0F38300C4F8D0040121CF
:104480002046FFF729FDDAE705EB41104FF67F32B2
:1044900000F510608260036823F400130360C0F825
:1044A0000822D0F8002222F40012C0F80022D0F82E
:1044B000002242F00062C0F80022491C20798842A4
:1044C000E2D8D5F81C0840F00111C5F81C18E07BB3
:1044D00060B1D5F8840840F00B01C5F88418D5F810
:1044E000440840F00B01C5F844180CE0D5F8140856
:1044F00042F22B010843C5F81408D5F8100840F023
:104500000B01C5F81018D5F8000820F4FE61C5F8B5
:104510000018A1792068009A06F05EF920684169C8
:1045200001F480514161206806F0D8FB800415D564
:10453000206805F097FF206806F094FBE07101F019
:1045400003FAE2790146206806F032FC204600F0CA
:104550004DF92068416901F400514161206806F07D
:10456000BDFB000707D5204600F05BF920684169D4
:1045700001F008014161206806F0B0FB000615D586
:10458000A86920F08001A96101260CE006EBC600B5
:1045900004EB800090F85702012803D12046F1B2C5
:1045A000FFF7DBFC761C2079B042EFD8206806F0DC
:1045B00095FBC0021FD5012615E005EB4610D0F88B
:1045C000001906EBC60004EB8000027E012A09D127
:1045D000002907DA80F81780F0B240F08001204609
:1045E000FFF7BBFC761C2079B042E6D82068416911
:1045F00001F480114161206806F070FB800230D523
:10460000012026E005EB4011D1F8001B00EBC002B1
:1046100004EB820292F85832012B19D1002917DAE3
:1046200094F8D434C1F3004103F001038B420FD15D
:1046300082F85782A96941F08002AA616969090676
:1046400006D4D5F8040840F40070C5F8040803E067
:10465000401C21798142D5D82068416901F40011BC
:104660004161206806F03AFB400007D52046FFF77D
:1046700059FC2068416901F080414161206806F0E1
:104680002DFB40070AD520684568680702D52046FB
:10469000FFF75FFC2068416829434160BDE8F88F5F
:1046A000D0F8E00405F029BBD0F8E00405F03ABBEF
:1046B000F8B50446002C04D094F89504002510B1F8
:1046C00006E00120F8BD84F89454204600F05CF820
:1046D000032084F89504206806F078F8207C8DF893
:1046E000000094E80F0005F0CBFE022618B184F814
:1046F00095640120F8BD2068002106F012FB18B176
:1047000084F895640120F8BD002101270CE001EB3D
:10471000C10004EB800047750175C1850576C56150
:1047200005624562491CC9B220798842EFD8002150
:104730000DE001EBC10004EB800000F51570457041
:10474000017005718560C5600561491CC9B2207999
:104750008842EED8207C8DF8000094E80F0005F028
:104760007FFF18B184F895640120F8BD657484F862
:104770009574207B012802D12046FFF799FB206821
:1047800005F060FF0020F8BD10B5B0B00446B821B8
:1047900002A8FBF785FF1349206888421FD100203B
:1047A0004FF48021CDE902108800239002A800F088
:1047B00095FA08B1FDF708F800F0B6F80A48016864
:1047C00041F000710160006800F00070019000226B
:1047D00005214D20FFF73AFB4D20FFF729FB30B0B4
:1047E00010BD000000000440D844025870B50446D3
:1047F0000125E07900280ED0022801D0FCF7E4FF63
:10480000D4F8E004294605F0FEFAD4F8E004BDE847
:10481000704005F0B1BA0025F2E7D0F8E00405F0E9
:10482000DBBAD0F8E00405F0E1BA10B5044694F81C
:10483000940401280AD0012084F89404617420684B
:1048400006F09FFA002084F8940410BD022010BDE9
:10485000D0F8E02400F29C41104605F0E0BA10B513
:104860000446206894F89414012909D0012184F8A1
:104870009414C168490609D5617B012902D005E07D
:10488000022010BD816B41F480318163206806F005
:10489000A1F9206805F0C8FE002084F8940410BD3A
:1048A00010B50446D4F8E00405F0FBFA2068D0F80F
:1048B000001E41F00101C0F8001EE07A002804D07B
:1048C0000248016841F00601016010BD10ED00E0F2
:1048D00070B514490A68D243520708D5096801F037
:1048E0000701814201D0012070BD002070BD0A681F
:1048F00022F0070202430A60FFF7BEF90446094DA1
:104900004FF47A76083D06E0FFF7B6F9001BB04297
:1049100001D9012070BD2868C0438004F4D4002070
:1049200070BD00000C4802580248016841F08071D7
:10493000016070470C48025810B501F005F80549B0
:104940000968054AC1F30211515C01F01F01C8401A
:1049500010BD00002044025898CF000810B56949E6
:104960000A6802F003020968C1F30531654B1B1D9B
:104970001B68C3F30013634C14342468C4F3CC04E1
:1049800014FB03F300EE103AB8EE400A002971D090
:104990009FED5D1A5B4BF7EE000A1033F2B39FED0B
:1049A0005B2A012A7FD0022A7CD001EE901A196876
:1049B000F8EE611AC2EE212AC1F3080101EE901A45
:1049C000F8EE611A40EE011A31EEA00A22EE800ADA
:1049D0001968C1F3462101EE101AB8EE411A31EE02
:1049E000201AC0EE011ABCEEE11A80ED001A196817
:1049F000C1F3064101EE101AB8EE411A31EE201A49
:104A0000C0EE011ABCEEE11A80ED011A1968C1F37B
:104A1000066101EE101AB8EE411A00E008E071EEEE
:104A2000200A80EE201ABCEEC10A80ED020A10BDF9
:104A3000344A283A1468A4061ED51268C2F3C10489
:104A4000334AE24001EE902AF8EE612A01EE901A14
:104A50001968F8EE611A82EEA12AC1F3080101EE8D
:104A6000901AF8EE611A40EE011A31EEA00A22EE19
:104A7000000AADE741E016E001EE901ADFED252ACD
:104A80001968F8EE611A82EEA12AC1F3080101EE5D
:104A9000901AF8EE611A40EE011A31EEA00A22EEE9
:104AA000000A95E713E001EE901A1968F8EE611A12
:104AB000C2EE212AC1F3080101EE901AF8EE611A44
:104AC00040EE011A31EEA00A22EE800A80E701EEE4
:104AD000901ADFED112A1968F8EE611A82EEA12A08
:104AE000C1F3080101EE901AF8EE611A40EE011AC6
:104AF00031EEA00A22EE000A6AE70021016041605F
:104B0000816010BD28440258000000390024744A16
:104B10000090D0030024744C001BB74B10B56949BA
:104B20000A6802F003020968C1F30551654B1B1DB9
:104B30001B68C3F30023634C1C342468C4F3CC0407
:104B400014FB03F300EE103AB8EE400A002971D0CE
:104B50009FED5D1A5B4BF7EE000A1833F2B39FED41
:104B60005B2A012A7FD0022A7CD001EE901A1968B4
:104B7000F8EE611AC2EE212AC1F3080101EE901A83
:104B8000F8EE611A40EE011A31EEA00A22EE800A18
:104B90001968C1F3462101EE101AB8EE411A31EE40
:104BA000201AC0EE011ABCEEE11A80ED001A196855
:104BB000C1F3064101EE101AB8EE411A31EE201A87
:104BC000C0EE011ABCEEE11A80ED011A1968C1F3BA
:104BD000066101EE101AB8EE411A00E008E071EE2D
:104BE000200A80EE201ABCEEC10A80ED020A10BD38
:104BF000344A283A1468A4061ED51268C2F3C104C8
:104C0000334AE24001EE902AF8EE612A01EE901A52
:104C10001968F8EE611A82EEA12AC1F3080101EECB
:104C2000901AF8EE611A40EE011A31EEA00A22EE57
:104C3000000AADE741E016E001EE901ADFED252A0B
:104C40001968F8EE611A82EEA12AC1F3080101EE9B
:104C5000901AF8EE611A40EE011A31EEA00A22EE27
:104C6000000A95E713E001EE901A1968F8EE611A50
:104C7000C2EE212AC1F3080101EE901AF8EE611A82
:104C800040EE011A31EEA00A22EE800A80E701EE22
:104C9000901ADFED112A1968F8EE611A82EEA12A46
:104CA000C1F3080101EE901AF8EE611A40EE011A04
:104CB00031EEA00A22EE000A6AE70021016041609D
:104CC000816010BD28440258000000390024744A55
:104CD0000090D0030024744C001BB74B2DE9FC5FFF
:104CE000044600250026F94F2068DFF8E493C0430E
:104CF000010104F10800019004F1280000900DD496
:104D0000606EB8B1B0F5801F19D0B0F5001F1CD08F
:104D1000B0F5401F00D00125EDB12E462088C043DC
:104D2000C00535D4A06D05282FD2DFE800F01D2284
:104D3000282F2F00386840F400303860ECE70198E5
:104D4000022102F0E1FF0546E6E70098022103F0A8
:104D50006DF80546E0E7D9F80000616E20F44010D8
:104D60000843C9F80000D9E7386840F400303860DB
:104D70000CE00198002102F0C7FF054606E000980C
:104D8000002103F053F8054600E00125A5B12E46A9
:104D90002088DFF84083C04340051FD4D4F8A40026
:104DA000B0F5C00F18D010DC50B3B0F5001F2CD0F8
:104DB000B0F5800F0FD12EE0D9F80000A16D20F0E2
:104DC00007000843C9F80000E2E7B0F5000F03D080
:104DD000B0F5200F00D001251DB32E462088C0431A
:104DE000000531D4D4F8A800B0F1407F2AD022DCED
:104DF000F0B3B0F1807F4BD0B0F1007F21D14DE016
:104E0000386840F400303860E6E70198002102F08D
:104E10007BFF0546E0E70098002103F007F8054610
:104E2000DAE7D8F80000D4F8A41020F460000843B2
:104E3000C8F80000D2E7B0F1806F03D0B0F1A06FE6
:104E400000D0012585B32E462068C04380010AD4D6
:104E5000E06C30B1102832D0202836D0302800D075
:104E600001258DB32E462088C043C00446D400E0FF
:104E700009E0E06DB0F5005F5CD036DCA0B3B0F5C2
:104E8000805F38D150E0386840F400303860D9E7AE
:104E90000198002102F038FF0546D3E70098002171
:104EA00002F0C4FF0546CDE7FFE7D8F80000D4F8CC
:104EB000A81020F0E0600843C8F80000C4E7386894
:104EC00040F400303860CCE705E00198022102F0A0
:104ED0001BFF0546C5E77E48001F0168E26C21F014
:104EE000300111430160BEE719E0B0F5405F03D027
:104EF000B0F5804F00D0012515B32E462088C04361
:104F000080042FD4206EB0F5403F29D021DC38B387
:104F1000B0F5803F38D0B0F5003F20D13AE0386896
:104F200040F400303860E7E70198002102F0ECFE21
:104F30000546E1E70098002102F078FF0546DBE72F
:104F4000D9F80000E16D20F4E0400843C9F8000002
:104F5000D4E7B0F5802F03D0B0F5A02F00D0012505
:104F6000F5B12E462088C04340042BD4D4F8AC00C1
:104F7000B0F1405F24D01CDC10B3B0F1805F4FD0A3
:104F8000B0F1005F1BD152E00198012102F0BCFE9C
:104F90000546E5E70098012102F048FF0546DFE7F6
:104FA000D9F80000216E20F4E0200843C9F8000081
:104FB000D8E7B0F1804F03D0B0F1A04F00D0012569
:104FC000A5B32E462088C04300040AD4E06E30B159
:104FD000B0F1805F3DD0B0F1005F3FD00125B5B3A7
:104FE0002E462068C043C0010AD4A06C30B101280D
:104FF00043D0022846D0032800D0012545B32E46D1
:105000002068C04340025AD4DFF8CCB0DBF800007F
:1050100040F48070CBF80000FEF72EFE824648E098
:105020000198012102F070FE0546C9E705E00098ED
:10503000012102F0FBFE0546C2E7D8F80000D4F8D3
:10504000AC1020F0E0400843C8F80000BAE70BE0DD
:105050001EE0386840F400303860C0E70198012154
:1050600002F052FE0546BAE7D9F80000E16E20F0E2
:1050700040500843C9F80000B3E7386840F40030F6
:105080003860BBE70198022102F03EFE0546B5E715
:105090000F48001F0168A26C21F003011143016059
:1050A000AEE7FEF7E9FDA0EB0A00642801D903256D
:1050B00003E0DBF80000C005F3D58DB12E46207863
:1050C000DFF818A0C043C00763D073E02C44025837
:1050D0005044025858440258004802585444025858
:1050E000DFF850B4DBF80000B4F8B01000F4407002
:1050F00001F44071884211D0DBF8000020F44070C8
:10510000DBF8001041F48031CBF80010DBF8001020
:1051100021F48031CBF80010CBF80000D4F8B000B7
:10512000B0F5807F11D1FEF7A7FD824609E0FEF7BA
:10513000A3FDA0EB0A0141F28830814201D9032589
:1051400003E0DBF800008007F1D50DB12E46B6E78D
:10515000D4F8B000C0F3012103290FD0F54860381E
:10516000016821F47C510160DBF80000B4F8B01054
:10517000C1F30B010843CBF80000A0E7ED4960390B
:105180000A68ED4B22F47C52184042EA1010086085
:10519000EAE7A06F18280BD005DC48B1082815D025
:1051A000102804D118E0202802D0282800D001259A
:1051B000C5B12E462078C04380072BD4606F0628E7
:1051C00025D2DFE800F025181E25252501980121AC
:1051D00002F09AFD0546EBE70098012102F026FE59
:1051E0000546E5E7DAF80000A16F20F03800084333
:1051F000CAF80000DEE70198012102F085FD0546AE
:1052000006E00098012102F011FE054600E00125AC
:105210006DB12E462078C043400720D4D4F89000CA
:10522000062819D2DFE800F0190C12191919DAF85A
:105230000000616F20F007000843CAF80000E9E7AA
:105240000198012102F060FD054606E00098012169
:1052500002F0ECFD054600E0012595B12E462078D0
:10526000C043800620D4D4F88C00B0F1405F19D040
:1052700011DCB8B1B0F1805F28D0B0F1005F10D17F
:105280002AE0D8F80000D4F8901020F00700084376
:10529000C8F80000E3E7B0F1804F03D0B0F1A04FB1
:1052A00000D00125F5B12E462078C04340062CD40D
:1052B000D4F89800B0F5406F25D01DDC18B3B0F5D8
:1052C000806F34D0B0F5006F1CD136E0019800211A
:1052D00002F01AFD0546E5E70098022102F0A6FD5E
:1052E0000546DFE7DAF80000D4F88C1020F0E04043
:1052F0000843CAF80000D7E7B0F5805F03D0B0F5E7
:10530000A05F00D00125F5B12E462078C0430006ED
:105310002CD4D4F89C00B0F5C04F25D01DDC18B3B8
:10532000B0F5005F2CD0B0F5804F1CD12EE0019875
:10533000002102F0E9FC0546E5E70098022102F0B1
:1053400075FD0546DFE7D8F80000D4F8981020F482
:10535000E0500843C8F80000D7E7B0F5004F03D08D
:10536000B0F5204F00D00125B5B12E462078C043BE
:1053700000072AD4D4F88000B0F5805F16D01BE077
:105380000198002102F0C0FC0546EDE700980221DB
:1053900002F04CFD0546E7E7D8F80000D4F89C1071
:1053A00020F460400843C8F80000DFE700980221BD
:1053B00002F03CFD00B10126DAF80000D4F88010BC
:1053C00020F440500843CAF800002078C043C006CB
:1053D00013D4D4F89400B0F5807F05D10098022151
:1053E00002F024FD00B10126D8F80000D4F8941092
:1053F00020F440700843C8F800002068C043000350
:105400000BD4D4F8A000E8B3B0F5803F7DD0B0F560
:10541000003F00D00125B5B32E462068C0434003AD
:105420000DD4D4F88400B0F5801F70D0B0F5001F03
:105430006ED0B0F5401F00D001252DB32E46206858
:10544000C043C00307D4206DF0B3B0F5803F75D0E2
:105450000125D5B32E462068C043800005D40098AE
:10546000022102F0E3FC00B101262068C043800362
:1054700011D4E06F68B1B0F5807F76D0B0F5007FD1
:1054800007D002E05BE066E07BE0B0F5407F00D053
:105490000125DDB32E462068C043C00207D4D9F8E9
:1054A0000000216F20F000400843C9F80000206888
:1054B000C043800207D4D9F80000A16E20F08070AC
:1054C0000843C9F8000001E065E06FE02068C043D0
:1054D00040000AD417486038016821F40041016097
:1054E0000168D4F8B420114301602068C04307D498
:1054F000104824380168626D21F040511143016069
:105500002068C04300020DD403E01EE05BE02DE004
:1055100031E0DAF80000D4F8881020F440000843A5
:10552000CAF8000020790025C04300F0010028439C
:1055300052D057E070440258FFFCFF0F30E0019852
:10554000002102F0E1FB054665E70098022102F028
:105550006DFC05465FE7D8F80000D4F8A01020F4F1
:1055600040300843C8F8000057E727E0386840F4A7
:105570000030386061E70098012102F057FC0546D1
:105580005BE7DAF80000D4F8841020F440100843F8
:10559000CAF8000053E7386840F40030386058E734
:1055A0000198022102F0B0FB054652E72E4801683F
:1055B000226D21F48031114301604CE7386840F4DA
:1055C0000030386065E7DAF80000E16F20F44070E1
:1055D0000843CAF800005EE70198002102F094FB3E
:1055E00000B106462079C04300F00200284305D1EF
:1055F0000198012102F088FB00B106462079C043E2
:1056000000F00400284305D10198022102F07CFB40
:1056100000B106462079C04300F00800284305D1B8
:105620000098002102F002FC00B106462079C04338
:1056300000F01000284305D10098012102F0F6FB8C
:1056400000B106462079C04300F02000054305D193
:105650000098022102F0EAFB00B1064616B10120D3
:10566000BDE8FC9F0020FBE74C4402582DE9F05FA9
:1056700004460D46002C17D0DFF84C82D8F8000005
:1056800000F00F00A84211D2D8F8000020F00F005F
:105690002843C8F80000D8F8000000F00F00A84226
:1056A00004D00120BDE8F09F0120FBE72078874E61
:1056B00040070AD52069316801F07001884204D999
:1056C000316821F07001014331602078804F00077C
:1056D0000AD56069396801F07001884204D93968D7
:1056E00021F07001014339602078C0060AD5A06915
:1056F000396801F4E061884204D9396821F4E06135
:10570000014339602078DFF8CC9180060DD5E0693F
:10571000D9F8001001F07001884206D9D9F80010BC
:1057200021F070010143C9F80010207880070AD5E4
:10573000E068316801F00F01884204D9316821F036
:105740000F01014331602078C00743D03068A16861
:1057500020F47060084330605C49606818390228A2
:1057600008D003280BD001280ED00968490710D4AF
:10577000012097E7096889030BD4012092E70968A3
:10578000890106D401208DE70968C90501D40120EB
:1057900088E7DFF838A1AAF1080ADAF8001021F04A
:1057A00007010143CAF80010FEF766FA834609E0D4
:1057B000FEF762FAA0EB0B0141F28830814201D979
:1057C00003206FE7DAF80000616800F03800B0EB02
:1057D000C10FEDD1207880070AD5E068316801F06B
:1057E0000F01884204D2316821F00F01014331607A
:1057F000D8F8000000F00F00A8420ED9D8F8000039
:1058000020F00F002843C8F80000D8F8000000F08E
:105810000F00A84201D0012044E7207840070AD5B4
:105820002069316801F07001884204D2316821F0AA
:10583000700101433160207800070AD5606939683A
:1058400001F07001884204D2396821F070010143EF
:1058500039602078C0060AD5A069396801F4E06192
:10586000884204D2396821F4E0610143396020782C
:1058700080060DD5E069D9F8001001F0700188426A
:1058800006D2D9F8001021F070010143C9F80010C8
:1058900000F0A0F83168C1F303220F498A5C02F0DE
:1058A0001F02D040326802F00F02895C0B4A01F0FF
:1058B0001F0120FA01F111600949086009480068D8
:1058C000BDE8F05FFEF714BA0020005218440258F9
:1058D0001C4402582044025898CF0008200000249D
:1058E0001C000024140000243F220260144A1268A5
:1058F00002F007024260124A0832136803F4706330
:105900008360136803F00F03C360126802F0700233
:1059100002610B4A0C32136803F070034361126892
:1059200002F4E0628261064A1032126802F07002EC
:10593000C2610448006800F00F0008607047000072
:10594000104402580020005200B500F043F80B4903
:105950000A68C2F303230A4AD35C03F01F03D8404A
:10596000096801F00F01515C064A01F01F0120FA9D
:1059700001F11160044A1060084600BD1844025845
:1059800098CF0008200000241C00002400B5FFF779
:10599000DBFF05490968054AC1F30211515C01F0BA
:1059A0001F01C84000BD00001C44025898CF0008E9
:1059B00000B5FFF7C9FF05490968054AC1F302218F
:1059C000515C01F01F01C84000BD00001C4402589A
:1059D00098CF000830B564480068654C10F0380175
:1059E000624808D0021108290DD010290DD01829BD
:1059F0000DD0104630BD21688906FBD52168C1F362
:105A0000C101C84030BD104630BD5A4830BD56496E
:105A100018310A6802F003020968C1F30511524BFC
:105A20001C331B6803F001034F4D24352D68C5F36B
:105A3000CC0515FB03F300EE103AB8EE400A00293E
:105A400077D0DFED4D0A484BB7EE001A20333AB35A
:105A50009FED4A2A012A58D0022A6CD001EE901AF2
:105A60001868F8EE611AC2EE212AC0F3080001EEB0
:105A7000900AF8EE611A40EE201A31EE810A22EE09
:105A8000800A1868C0F34620401C00EE900AF8EE29
:105A9000600A80EE201ABCEEC10A10EE100A30BD7A
:105AA000226892061BD52268C2F3C102D04001EEE3
:105AB000900A1868F8EE612A01EE901AF8EE611A61
:105AC00082EEA12AC0F3080001EE900AF8EE611AF6
:105AD00040EE201A31EE810A22EE000AD1E701EEF3
